:020000040002F8
:10300000F05F0020153402001D3402001F3402005E
:1030100021340200233402002534020000000000A5
:103020000000000000000000000000002734020043
:1030300029340200000000002B3402002D3402006D
:10304000493A02002F340200553F02007D3C020045
:103050002F3402003D38020025350200D53A020027
:103060002F3402002D3F0200413F02002F340200A6
:103070002F3402002F3402002F3402002F340200BC
:103080002F340200B13A02002F3402002F34020024
:103090008D3C02002F340200913C02002F340200CC
:1030A0002F3402002F3402002F3402002F3402008C
:1030B0002F3402002F340200000000000000000046
:1030C0002F340200A13A02002F3402002F340200F4
:1030D0002F340200653702002F3402000000000088
:1030E00000000000000000000000000000000000E0
:1030F00000000000000000000000000000000000D0
:1031000000000000000000000000000000000000BF
:1031100000000000000000000000000000000000AF
:10312000000000000000000000000000000000009F
:10313000000000000000000000000000000000008F
:10314000000000000000000000000000000000007F
:10315000000000000000000000000000000000006F
:10316000000000000000000000000000000000005F
:10317000000000000000000000000000000000004F
:10318000000000000000000000000000000000003F
:10319000000000000000000000000000000000002F
:1031A000000000000000000000000000000000001F
:1031B000000000000000000000000000000000000F
:1031C00000000000000000000000000000000000FF
:1031D00000000000000000000000000000000000EF
:1031E00000000000000000000000000000000000DF
:1031F00000000000000000000000000000000000CF
:10320000DFF80CD000F050F9004800478960020058
:10321000F05F002030B4044654E8000F0D4644E847
:103220000053002BF8D1156030BC704730B4044611
:1032300054E8000F40EA010544E80053002BF7D1A1
:10324000156030BC704730B4044654E8000F00EA03
:10325000010544E80053002BF7D1156030BC7047DE
:1032600030B4044654E8000F80EA010544E80053F6
:10327000002BF7D1156030BC704730B4044654E8D9
:10328000000F00EB010544E80053002BF7D1156057
:1032900030BC704730B4044654E8000FA0EB010581
:1032A00044E80053002BF7D1156030BC7047000094
:1032B00030B450E8012F93B2C48923448489A342D7
:1032C00028BF1B1B0489A34202BFBFF32F8F00201E
:1032D00007E0C3EA020340E80134002CE9D14FF0D3
:1032E00001000A6030BC704750E8012FC2EA024278
:1032F00040E801210029F7D1704730B450E8022F8F
:103300001FFAA2F3C488A34202BFBFF32F8F00208D
:103310000DE0C48923448489A34228BF1B1BC2EA51
:10332000034340E80234002CE8D14FF001000A606A
:1033300030BC704750E8022FC2EA224240E8022126
:103340000029F7D17047034653E8022FD988B2EB22
:10335000324F4FF0000017BF92B241EA014142EAFA
:10336000014104E05A68B2EB324F08BF012043E844
:103370000212002AE8D1704730B4044654E8000F26
:103380000D4644E80053002BF8D1156030BC70475F
:1033900030B4044654E8000F40EA010544E8005305
:1033A000002BF7D1156030BC704730B4044654E8A8
:1033B000000F00EA010544E80053002BF7D1156027
:1033C00030BC704730B4044654E8000F80EA010571
:1033D00044E80053002BF7D1156030BC704730B47F
:1033E000044654E8000F00EB010544E80053002BAD
:1033F000F7D1156030BC704730B4044654E8000F74
:10340000A0EB010544E80053002BF7D1156030BC58
:10341000704700000648804706480047FEE7FEE781
:10342000FEE7FEE7FEE7FEE7FEE7FEE7FEE7FEE774
:10343000953C02000132020000487047FCA40200E3
:1034400040EA01039B0703D009E008C9121F08C026
:10345000042AFAD203E011F8013B00F8013B521EA6
:10346000F9D27047D2B201E000F8012B491EFBD21D
:1034700070470022F6E710B513460A46044619467F
:10348000FFF7F0FF204610BD421C10F8011B002979
:10349000FBD1801A7047034611F8012B00F8012B6D
:1034A000002AF9D118467047064C074D06E0E0683F
:1034B00040F0010394E8070098471034AC42F6D37B
:1034C000FFF7A2FE3CAB02005CAB020070B58C18AB
:1034D00010F8015B15F0070301D110F8013B2A1128
:1034E00006D110F8012B03E010F8016B01F8016B15
:1034F0005B1EF9D12B0705D40023521E0DD401F811
:10350000013BFAE710F8013BCB1A921C03E013F8D9
:10351000015B01F8015B521EF9D5A142D8D300200E
:1035200070BD00002DE9F04700268CB0DFF86091F7
:10353000B0464FF48075012437460696284604F0BD
:103540009FFB38B1D9F80403204203D0284604F089
:103550008DFB26432D1D64007F1CADB2082FEDD3DB
:103560004FF4BE74204604F08BFB48B1204604F0B3
:103570007DFB46F0004606AA0121002004F062FB14
:10358000444D16F0FF0F15D00127002437420DD00F
:1035900009EB8401D1F81005D1F81015C0F304200F
:1035A00055F82420C1F3014102B190477F00641C0B
:1035B000082CEBD3002E67DA4FF0FF30CDE90880FE
:1035C00000263446281910F8507F90F9000027F0A3
:1035D000C008401C44D009A9404603F05BFB58B327
:1035E0004FEA9719404601F0FFFE55F820701FB1D1
:1035F000B9F1030F03D00FE0B9F1030F30D108A8E0
:103600004FEAD80208F00703815C4FF0010C0CFA76
:1036100003FC41EA0C0181544FF0A04101EB88000A
:10362000D0F8000706A9C0F3014A404603F032FB78
:1036300018B1BAF1020F03D012E0BAF1030F0FD1A3
:10364000B9F1030F08D1BAF1020F1BD00221404695
:1036500004F0DFFA761CF6B217B149464046B84787
:10366000641C042CAED3002E0ED06A46012100202B
:1036700004F0E8FA06990098884205D00690089868
:1036800009909DE70321E2E70CB0BDE8F087000058
:1036900000600040F8330020F0B50C46054602FB00
:1036A00004F04FF47A7786B205FB07F04FF03C0C3C
:1036B00090FBFCFE78009EFBF0F100FB11E0B0F502
:1036C0007A7000D54042C0F57A70704390FBF7F0F5
:1036D000B5FBFCF7C4F1640151438AB2002180B20A
:1036E000062F27D2DFE807F003080F14192066F32E
:1036F0000F0460F31F4403E060F30F0466F31F44FC
:1037000061F30F0516E061F30F0466F31F440FE049
:1037100061F30F0460F31F4403E060F30F0461F3EF
:103720001F4466F30F0505E066F30F0461F31F44C1
:1037300060F30F05A0B21044C0EB002142F21070FC
:1037400091FBF0F1198002EB1441C1EB012191FBD7
:10375000F0F15980A9B21144C1EB012191FBF0F0C5
:103760009880F0BD2DE9F041324F00254FF48A7862
:103770002E464146384604F08BFA2F4CA0B1414604
:10378000384604F08AFAE06870B1D7F840158142F3
:1037900003D1E18800EB810600E00646C7F84065EA
:1037A000607940F0040060714FF4827841463846F9
:1037B00004F06EFAB8B14146384604F06EFAA068DB
:1037C00088B1D7F83815814202D1E18800EB810039
:1037D000C7F83805617941F0020161710A0701D526
:1037E000CA0711D005466079C10711D0810709D5F4
:1037F000410707D520F006006071010710D520F0C1
:1038000008006071BDE8F08121F008006071EAE70E
:1038100055EA0600F6D0E28831462846236805E0DE
:10382000D7F84015D7F83805E2882368BDE8F0419D
:103830001847000000500240703F00202DE9F05F63
:10384000624C0025D4F8040138B1D4F80003800795
:1038500003D55F4804F084FD0225D4F8080160B167
:10386000D4F80003400708D55948001D04F078FD3E
:103870000DB1032502E0012500E015B1284604F052
:1038800075FDD4F81801534F534D012608B3D4F8F1
:10389000000340061DD551480068C0F3C800A0F1E0
:1038A00002084B48143004F05BFD3878302803D010
:1038B000387850280BD00BE0D5F804C0BCF1000FCD
:1038C00007D04346434A0221E868E04701E02E70F2
:1038D000E661D4F810014FF01009D0B1D4F800031C
:1038E000C00616D53A480C3004F03AFDC4F80893E7
:1038F0003A4914390F60091DC1F80090E661D5F806
:1039000004C0BCF1000F04D000231A460321E8686C
:10391000E047D4F84C01DFF8C8B0DFF8C4A04FF09E
:103920000D08ABF1080B38B3D4F80003000323D51E
:103930002748483004F014FD2548143004F010FDE9
:103940002348243004F00CFD244814380760011D7E
:10395000C1F80090E6614FF48860C4F80403CAF827
:103960000080CBF800800220A8606F6827B1002398
:103970001A461946E868B847D4F8280160B1D4F867
:103980000003400508D5DAF80000574610482430F7
:1039900004F0E6FCC7F80080D4F81C01002813D01E
:1039A000D4F8000300060FD5DBF800705C46084829
:1039B000183004F0D5FCF80704D0287810B1266040
:1039C00000202870C4F80080BDE8F09F005000403F
:1039D0000451004084340020F42A00202455004083
:1039E0000C54004000F01F0201219140400980006A
:1039F00000F1E020C0F88012704700F01F020121A2
:103A000091404009800000F1E020C0F800117047AB
:103A100000F01F02012191404009800000F1E020E8
:103A2000C0F8001270474907090E002806DA00F0B6
:103A30000F0000F1E02080F8141D704700F1E02035
:103A400080F80014704700002DE9F0414FF48077B2
:103A5000384603F0E7F90124104EA50748B138466F
:103A600003F0E7F90120C5F808037470002001F0A5
:103A7000C3FC4FF48277384603F0D4F900280BD00A
:103A8000384603F0D6F90220C5F80803B470BDE843
:103A9000F041012001F0B0BCBDE8F081A03400206D
:103AA0000149024802F05DB8EC2A002000100240F3
:103AB00007480021C0F84011C0F84411C0F848116F
:103AC000C0F84C11C0F80011C0F8041105F040BD59
:103AD000001001402DE9FE434FF48278404604F087
:103AE000D5FC4C4F00254C4C012600B3404604F059
:103AF000D5FC94F82E0010B194F82F10D1B18DF8A8
:103B00000050616801912189ADF80810E26832B176
:103B1000218B618362602181E56010B102E0257430
:103B200000E03E6021686846884784F82F5094F88A
:103B30002E0060B34FF48077384604F0A7FC30B312
:103B4000384604F0ABFC628B94F82D108A420AD9F7
:103B5000A2EB010080B260832289A2EB00006268C0
:103B600002EB400005E007D1E06828B184F82F603F
:103B7000658304F045FC04E08A4202D184F82F609A
:103B80006583404604F08AFC2248001D06604FF41D
:103B90008877384604F07AFC48B1384604F07EFC59
:103BA000257402208DF800002168684688474FF48C
:103BB0008A77384604F06AFC28B1384604F06EFC77
:103BC0002574BDE8FE834FF000484FF48C79676997
:103BD0001DE000BFB7FA87F028FA00F109EB800575
:103BE0008F43284604F052FC88B1284604F056FC66
:103BF000A5F58C75E8088DF8040045F38000401C9D
:103C00008DF800608DF80500216868468847002F10
:103C1000E0D1D6E700700040B434002000F0A8B92D
:103C200070B50E46144900EB400001EBC005144688
:103C3000E86A183520B101280FD0022805D113E019
:103C4000284600F0C9F9A04201D2002411E0224622
:103C50003146284600F0F8F90BE0284600F0BCF9A0
:103C6000A042F4D20446F2E73146284600F0BFF9FC
:103C70000446204670BD0000C837002001490248B4
:103C800001F0DEBF5C3400200030004005F0AEBB28
:103C900004F0E2BCF0B598480023021D017801262B
:103CA000101D4FF0805406290BD115782D0708D12F
:103CB0000578C5F30315032D06D0042D04D0052D7A
:103CC00002D0062907D00EE0B4F824538B4FC5F379
:103CD00004253D6002E015782D0704D10578C5F371
:103CE0000315032D02D0062904D00FE0854F844D23
:103CF0007D670EE015782D0708D10578C5F303150B
:103D0000032D06D0042D04D0052D02D0062907D09E
:103D10000EE0D4F844527C4FC5F342353D6002E0DA
:103D200015782D0704D10578C5F30315032D02D0AE
:103D3000062906D011E0754D2F6827F080772F6097
:103D40000EE015782D0708D10578C5F30315032D6E
:103D500006D0042D04D0052D02D006290AD011E08A
:103D60004FF08045C5F80C31C5F81031664D2D1F58
:103D70002B6002E015782D0704D10578C5F30315F3
:103D8000032D02D0062905D00CE05F4F03256437D0
:103D90003D600AE015782D0704D10578C5F30315B9
:103DA000032D02D006290DD014E0594F05253D60A2
:103DB000574D78352E60564D08352B603F232D1F0B
:103DC0002B6002E013781B0704D10378C3F30313BD
:103DD000052B02D0062957D062E04E4B1B684E4D92
:103DE0002B604C4B1B1D1B682D1D2B60494B083352
:103DF0001B682D1D2B60474B0C331B682D1D2B6042
:103E0000444B10331B682D1D2B60424B14331B6831
:103E10002D1D2B603F4B18331B683F4D20352B6009
:103E20003C4B1C331B682D1D2B603A4B20331B6809
:103E30002D1D2B60374B24331B682D1D2B60354BFC
:103E400028331B682D1D2B60324B2C331B682D1D16
:103E50002B60304B30331B682F4D40352B602D4B82
:103E600034331B682D1D2B602A4B38331B682D1DE6
:103E70002B60284B3C331B682D1D2B60254B40339A
:103E80001B682D1D2B6002E013781B0708D10378F7
:103E9000C3F30313032B06D0042B04D0052B02D04D
:103EA000062907D019E0D4F858121C4A01F04F0136
:103EB000116002E0117809070FD10078C0F30310F8
:103EC000032803D0042801D0052806D1144801682E
:103ED000C90702D06FF0010101600C487438016815
:103EE00041F470010160BFF34F8FBFF36F8F0E4934
:103EF0000C480860F0BD0000E00F00F040350140C4
:103F00000DF0ADBA00C007403C050040FCED00E0FC
:103F1000105600400404001020C50040E40E00408C
:103F2000000400400090D003882B002004220249A6
:103F3000024801F064BE0000C03300200090004041
:103F400004220249024801F05ABE0000CC3300208E
:103F500000A000400448017F04480029024901D024
:103F600005F015BF05F084BEA837002000200040F2
:103F700010B5124C022012A12061C4E9050104F120
:103F80007801E161010221620021A1620CA2A26418
:103F90006162E06204F51E72E2641022A165C4E968
:103FA0001421E06509A1E01DFFF775FA08A120467C
:103FB000FFF771FA2020A07110BD0000C837002063
:103FC0005465726D696E616C0000000052545400BB
:103FD00053454747455200000269C1688A4203D8E9
:103FE0008068401A104400E0501A401E70472DE9C6
:103FF000F047C4681746894606464FF00008306906
:10400000A04201D9051B02E0B168201A0D1AB06860
:104010006D1E001BA84200D80546BD4200D33D4698
:1040200070682A4620444946FFF70AFAB0687F1BA9
:104030002C44A844A944A04200D10024F460002FDD
:10404000DDD14046BDE8F0872DE9F04104468846C1
:10405000D4E90207C51BE168606816460844B5420A
:1040600006D94146FFF7ECF9B819E060BDE8F081E8
:104070002A464146FFF7E4F9761B08EB0501324674
:104080006068FFF7DDF9E660F0E702E008C8121F9C
:1040900008C1002AFAD170477047002001E001C131
:1040A000121F002AFBD170470121202803DA81402A
:1040B0000548014003E0402802DA2038814009B178
:1040C0000120704700207047FC06FFBD082806D27B
:1040D00028B1012803D0042801D001207047002016
:1040E000704700002DE9FC4114468846074604F05D
:1040F00051F800BF03F09CFE0028FBD10125234EA0
:10410000012F27D06FF48050381828D0B0F5405FC9
:104110002CD06FF44051C84208D13088238805EB79
:1041200000401BA1626803F086FF06E0308842462B
:1041300005EB00401DA103F077FF22480068C0078F
:1041400000D000BE224602B041463846BDE8F041EC
:1041500000F074B830881CA105EB004003E0308803
:1041600021A105EB004003F05BFFE6E7A06804F047
:10417000FFFA034621886068CDE90001308823A159
:1041800005EB0040A26803F05EFFD6E76C2C002030
:10419000415353455254494F4E204641494C4544A2
:1041A0002061742025733A2575000000554E4B4E52
:1041B0004F574E204641554C54206174203078258D
:1041C00030385800F0ED00E0534F4654444556490E
:1041D00043453A20415353455254494F4E2046419E
:1041E000494C454400000000534F4654444556494D
:1041F00043453A20494E56414C4944204D454D4F88
:104200005259204143434553530000004552524FF9
:1042100052202575205B25735D2061742025733A3B
:10422000257500000EB5ADF80010CDE901206A46F5
:10423000002144F20100FFF755FF0EBD08B5012330
:104240008DF800309DF80030144B186059609A606A
:104250006FF48041401807D001280FD1DA60D86888
:1042600000889861D86807E01A6118698068586109
:1042700018690088986118694068D861186858689A
:104280009868D868186958699869D86972B600BF83
:104290009DF800000028FBD162B608BDD83300208D
:1042A000074B9B7823B12AB120B10068037C1BB176
:1042B0000820704707207047417442610020704712
:1042C0003435002070B504F039FC104800240B216F
:1042D000047044700E4D817014206C602C706C70F2
:1042E000FFF780FB07211420FFF79DFB1420FFF749
:1042F00084FB0848046007211120FFF794FB054860
:10430000001F0068A860002070BD00003435002048
:10431000182B0020081501402DE9FC47DFF87890A4
:1043200099F8023073B368B3052902D20720BDE8BB
:10433000FC87436933B3437C012B25D00027044617
:104340000025884616468DF80050684600F038F87B
:1043500001A805F071FEC8B1012101700F49446048
:104360000968C0E90218C0E904769DF8040089F8DC
:1043700001009DF8000000F047F81420FFF748FB0B
:104380002846D4E70820D2E70F46D8E704259DF851
:10439000000000F039F8F3E734350020041501403F
:1043A0000649897839B130B1416921B100210174E0
:1043B000022105F0A9B8082070470000343500201C
:1043C00030B5EFF3108172B60D4A9468012324B121
:1043D0000370002900D162B630BD93604FF0E02336
:1043E000D3F88051074C25401560C3F88041D3F8BD
:1043F000844154605A17C3F8842100220270E8E710
:1044000050340020FC06FFBD0B498A68002A11D0F9
:1044100000280FD1EFF3108072B60B684FF0E02246
:10442000C2F800314B68C2F8043100228A600028CB
:1044300000D162B67047000050340020054810B526
:104440000088032404EB004003A103F0E9FD0848C1
:10445000047010BD6C2C0020416476657274697321
:10446000696E672054696D656F75742E00000000D9
:10447000682A00202DE9FC4700251788064615808C
:1044800090F82D001446894630B13A4621464846F8
:1044900000F084FB050009D1B0784FF00C0A18B386
:1044A0002088C846001DB84202D95046BDE8FC87A6
:1044B000684679DF0028F9D12088032108F8001028
:1044C00020881921401C80B2208008F80010208824
:1044D000401C80B2208000EB0801BDF8000005F010
:1044E000CEFC218808442080F0780222C8B12188BF
:1044F00096F9033001F1030C4846BC45D5D8425427
:1045000021884FF0010C491C89B2218000F801C0BC
:104510002188491C89B2218009F801302088401C7B
:1045200020807068B8B1218890F9003001F1030C47
:104530004846BC45B9D8425421880A22491C89B250
:10454000218042542188491C89B2218009F8013018
:104550002088401C2080308950B1CDE900474B466F
:104560000622022106F1080005F07EFD05009DD11E
:10457000308A50B1CDE900474B460722032106F1AE
:10458000100005F071FD050090D1308B50B1CDE9E0
:1045900000474B461522142106F1180005F064FD72
:1045A000050083D1306A30B13B462246494600F0CF
:1045B000CBFF0500DBD1706A30B13B46224649464D
:1045C00001F060FE0500D2D196F82C0038B13B46D0
:1045D00022464946304604F045FC0500C7D13078F4
:1045E00038B13B4622464946304601F037FF0500C8
:1045F000BDD128465AE7F0B50C4693B01F210726D7
:10460000ADF80010ADF80410002750B1C17849078B
:104610000DD56A4602A9FFF72DFF002808D102AD8B
:1046200002E00025ADF800706CB1E07810B13046C2
:1046300013B0F0BD01AA0AA92046FFF71BFF00280E
:10464000F6D10AAA02E00022ADF80470BDF8040019
:10465000C3B2BDF80000C1B2284672DFE8E780F8B7
:104660002410704770B50D00044653D0F4B30120F8
:1046700020700026E670202205F17801201DFEF74B
:10468000DFFE84F82460D5F89800C4F8CC00D5F893
:104690009C00C4F8D0004FF6FF70A4F8C800C4F81E
:1046A0002560A4F8296084F82B6004F130003C21D7
:1046B0000646FEF7DEFE287884F83000A87884F8F5
:1046C0003200E87884F83300687884F83100D5E95E
:1046D0000401C4E91001D5E90201C4E90E01D5E9DC
:1046E0000601C4E9120195F82D0000E012E084F8FB
:1046F0005D00686AD8B104F1780104F16C0061676B
:104700006065696A09880180686A616D808888804F
:10471000002008E00E2070BD696A22188968095CD3
:1047200082F87810401C616D89888142F4D8A86AAB
:10473000E8B104F1A400C4F8A0000C38A065A96A8F
:1047400089888180A86AA16D00880880002006E021
:10475000A96A22188968095C82F8A410401CA16D1E
:1047600089888142F4D895F82C0084F85C00286A86
:1047700048B104F1C4002065296A49884180286A4B
:10478000216D00880880686800B1606305F13C0114
:104790003046BDE87040FFF72EBF10B50288102AE2
:1047A0001AD0112A1FD01B2A1CD1007A0C460028CF
:1047B00018D1E0780521401CB0FBF1F201FB120199
:1047C000204600F037F800280CD0D4F8D01000298B
:1047D00008D0BDE810400847C27B012A02D180887A
:1047E000A1F8C80010BD0C46002184F8D4108088C0
:1047F000B4F8C8108842F5D120790028F2D10121FF
:10480000DEE710B50C46022801D0032811D16078EC
:1048100000280ED000206070E178204600F00AF8F1
:10482000002806D0D4F8D010002902D0BDE81040EE
:10483000084710BD2DE9FF47044600780F4638B100
:10484000E770002003F006F9012628B16670D2E077
:10485000082004B0BDE8F0870025C4F82550A4F86E
:10486000295084F82B50A07910B1E078012806D0A7
:10487000E07970B1E078012801D0022809D1D4F89C
:10488000CC1021B184F82C600820884701E084F81E
:104890002C5004F1260100200A5C0AB1304603E0E6
:1048A000401C0628F8D300204FF002084FF0030AFE
:1048B0004FF00409012F06D0022F09D0032F0CD08E
:1048C000042F12D10DE0A17911B108B130460DE0ED
:1048D000E17911B108B1404608E0207A08B15046AC
:1048E00004E0607A08B1484600E02846E070D4F859
:1048F000CC1041B1032801D0042804D1607910B153
:1049000094F8D400A8B184F8D5500095029501958B
:1049100003958DF800508DF80850E17804F12500DA
:1049200004F13002052958D2DFE801F0670A131FAD
:104930003B0084F8D65084F8D56007208847E4E728
:10494000A67001908DF80060ADF80C50ADF80A50DB
:1049500043E084F8028001908DF80060208AADF871
:104960000C00A089ADF80A0037E0A08AADF80A0073
:10497000208BADF80C00607980B194F8D40068B950
:1049800094F8D60050B18DF8088084F83390002157
:104990001046FFF730FE00BB05211AE084F802A0A4
:1049A0001BE0A08BADF80A00208CADF80C006079FC
:1049B00088B194F8D40070B994F8D60058B18DF845
:1049C000088084F8339000211046FFF714FE20B9C8
:1049D0000621A17001E084F80290E07830B194F8EB
:1049E0002410684673DF00287FF433AFD4F8CC106E
:1049F00009B1A078884700202BE7A570F6E70000F2
:104A000070B5040012D001461C221448FEF718FDB0
:104A10001248134D0560206850B17ADF002806D196
:104A20002068016829604068686005E00E2070BD5C
:104A30000B487BDF0028FAD108484FF6FF71143885
:104A4000084A20F8041B0549343901600021FFF7AA
:104A500027FC0028EBD0032070BD00001835002093
:104A60000C2B0020D19F020010B50D4C10B102207C
:104A7000207010BD0120207060780128F9D101F06C
:104A80007BFC00206070074804F016FB06480321F9
:104A90000088BDE8104001EB004004A103F0C0BA5B
:104AA000682A00203D9102006C2C0020416374694B
:104AB0006E6720617320536C6176652E00000000E4
:104AC0002DE9F04100290DD0244C02780025032661
:104AD000214F6178052A05D2DFE802F003060916A6
:104AE0003200E560BDE8F0814078A070FAE7012966
:104AF000F8D14278E270E560388819A106EB0040F1
:104B0000BDE8F04103F090BA407801280DD001F0E3
:104B100033FC6570164804F0CFFA388815A106EB0F
:104B20000040BDE8F04103F07BBA04F0EBFA01204D
:104B3000607001F0D9FB388813A106EB0040F0E764
:104B40000129CFD1417819B9817809B9C07800B16C
:104B50000120E060E570C5E76C2C0020682A002089
:104B60004E6577207061747465726E3A2025690015
:104B70003D910200416374696E6720617320536C3C
:104B80006176652E00000000416374696E672061E4
:104B900073204D61737465722E0000007CB505466C
:104BA00008880C460930904201D90C207CBD68462B
:104BB0006DDF0028FAD121880820685420881B2145
:104BC000401C80B2208029542088401C80B2208064
:104BD0002844DDF801100160BDF8051081802088AF
:104BE000801D80B220809DF80010490800D001216E
:104BF00029542088401C208000207CBD70B5674D62
:104C0000018894B0AE880446232974D04ADC6448F5
:104C10004FF003021129008802EB004053D00DDC55
:104C2000012967D010293BD15EA103F0F9F9A088D2
:104C3000A8802969002933D001204EE013294ED0E5
:104C40001D292DD1302204F108016846FEF7F8FB3A
:104C50006A69002A24D09DF80F001521B1EBD00F0E
:104C60001ED19DF81D0001281AD19DF81900C028F9
:104C700016D19DF81A00B82812D19DF81B0089287A
:104C80000ED19DF81C00B6280AD1DDF81F109DF842
:104C9000223009BA21F0FF019DF81E001943904708
:104CA00014B070BD3B2940D0512950D0522931D089
:104CB0005629F5D18088132176DF0028F0D03CA258
:104CC00040F2331123E03EA103F0AAF94FF6FF7042
:104CD000A88029690029E3D000208847E0E7002365
:104CE0001A46852130467FDF0028D9D030A2FB212B
:104CF0000DE000E022E000200C900D90A088002242
:104D00000CA990DF0028CBD029A240F20511FFF7B3
:104D100089FAC5E700231A4619463046A9DF00285C
:104D2000BED023A240F22511F1E78088132176DF5F
:104D30000028B5D01EA24FF49671E8E7A0880021A4
:104D400066DF0028ACD01AA24FF49C71DFE7102276
:104D5000A11D10A8FEF774FB9DF8401000299FD0FC
:104D60009DF84800042803D0062801D0052897D1D3
:104D7000022910D05FF001008DF830004FF4C170AF
:104D8000ADF83400A0880CA9A8DF002888D008A2BC
:104D900040F25311BBE70220EEE70000942A002006
:104DA0006C2C0020436F6E6E6563746564000000B8
:104DB0007372635C626C7565746F6F74682E6300E8
:104DC000446973636F6E6E65637465640000000010
:104DD0002DE9F04701883B4E40F2F3194FF6FF757D
:104DE00010291BD011293ED0122954D0502946D168
:104DF000C188F289841D914241D1618902293ED145
:104E00008688304600F050FE050038D004F10C00D2
:104E100000F082F9A8B3294630464EE0C17B87886E
:104E2000044601292BD1A846284600F03DFE050086
:104E300017D02F8000202872234843464A46016835
:104E4000C5F80A104068C5F80E0004F1100105F11C
:104E50000A0000F050FF6872F08900280FD129463F
:104E60002AE0042013E0808800F01EFE040006D033
:104E70006068FFF795FA08B103F0D6FF2580BDE81A
:104E8000F087FFE76868FFF78BFA0028F7D0BDE8E6
:104E9000F04703F0C9BF87880646384600F004FE95
:104EA0000400ECD02B464A4606F1080104F10A0042
:104EB00000F021FF607221463846BDE8F04700F05F
:104EC00093BB0000183500200C2B00202DE9F04783
:104ED0000446038840480122A4B000F1480A102B80
:104EE00009D0112B56D01A2B72D1217AB2EB111F97
:104EF00055D2012354E0D0E911218A430546011D12
:104F000012A803F064FF442212A901A8FEF798FA40
:104F1000DFF8C4900026374609F144090DF1040872
:104F20000AE000BF08EB46001D2283884946281D81
:104F3000009703F011FF761C0198B042F2D8686C1C
:104F4000A688C04303F02AFFA0F57F41FF3917D0A0
:104F500005EB40000123868032465146281D03F0B0
:104F60005BFF012332464946281D03F055FFE07BD5
:104F700002280DD000231849A2884C31281D22E0B8
:104F800024B0E521BDE8F047144A0420FFF74AB9F0
:104F90000123F0E70023A2885146001D13E00023FF
:104FA0000D490546A2885031001D03F035FF207AD7
:104FB0000221B1EB101F01D2012300E000230649BA
:104FC000A2885431281D24B0BDE8F04703F024BF67
:104FD00024B0BDE8F0870000403600200CAA020093
:104FE00030B5174B0D4604000FCB85B08DE80F0090
:104FF00023D015B34FF6FF70A0822868A06100206F
:10500000A0752146684662DF002814D120788DF80B
:1050100012000120ADF81000A21C04A9A0DF002896
:1050200009D12946204603F0C0FD002803D12946B6
:10503000204604F07AFD05B030BD0E20FBE70000ED
:1050400068A302007FB5002917D0002815D0028878
:10505000102A0DD0112A0DD0502A0FD0572A0CD16A
:105060001A4B1868D3E902238DE80F0089692AE0FA
:10507000808801E04FF6FF7088827FBD01910C4669
:10508000821DC3880989002512308B4202D15189C3
:1050900002290CD0A1898B42EFD1A1690029ECD063
:1050A00002905089ADF80C008DF800500AE000F035
:1050B00033F818B10120A075022001E0A575032086
:1050C0008DF80000A169684688477FBD58A302009B
:1050D0001FB560B1838AA3F57F44FF3C09D0837D6F
:1050E0003BB11388142B06D9072004B010BD0E2045
:1050F000FBE70820F9E70023009301930293039351
:105100008388CDE90221ADF8003001218DF802102D
:10511000808A6946A6DFE8E7007800F00100704762
:1051200008B503F05DFA20B10D4A40F26311FFF7B4
:1051300079F8002000906946012003F0C3F920B1FE
:10514000074A40F26911FFF76DF8684603F0FCF971
:10515000002804D0024A40F26D11FFF763F808BD41
:105160007852020010B503F01DFA002806D0BDE801
:10517000104003A240F21221FFF754B810BD000006
:105180007372635C626C7565746F6F74682E630014
:1051900010B5324BA8B083E80700FFF793F818B1B9
:1051A0002FA25721FFF73EF8FFF7BAFF00F08AFA67
:1051B00000F0BEFA2E480090002469462D48FFF703
:1051C0000FFF18B12CA29E21FFF72CF8A0216846F2
:1051D000FEF74FF902208DF800008DF80240042000
:1051E0008DF8030001208DF87C004FF44870229068
:1051F000B4202390244826901E4869463030FFF79B
:1052000031FA20B11CA24FF4CD71FFF70BF8194809
:1052100001213030FFF723FA1C216846FEF729F9F7
:105220004FF42030CDE900404FF47020029003206D
:105230008DF80C001548059015480690ADF80E4005
:105240008DF810406846FFF7DBFB002803D00AA268
:10525000C621FEF7E7FF28B010BD00009C2A002001
:105260007372635C626C7565746F6F74682E630033
:10527000D5870200D43000207372635C626C756560
:10528000746F6F74682E6300298802003D880200E5
:10529000D155020013B5014601AA0248FFF718FFD5
:1052A0001CBD0000D430002010B503210548FFF7D5
:1052B000C1FA002805D0BDE8104003A26521FEF721
:1052C000B1BF10BD043100207372635C626C756500
:1052D000746F6F74682E630008B500208DF80000AD
:1052E0006846FFF76DF806480078400702D1054987
:1052F000012088609DF80000FFF786F8002008BDB7
:105300001054004000500040F8B5871C00208DF874
:1053100000000E4601256846FFF752F8124C20683F
:105320003060D4E90001401AA168091ABE1C06E0E9
:1053300000F060FED4E90001401AA168091A491C76
:105340008E42F5D8A1682068084004EB8000C1684F
:1053500041F00301C1602068384420609DF80000DE
:10536000FFF752F82846F8BD503B002030B4826861
:105370000468531C8360A154D0E901128A4202D30D
:1053800030BC02F06EBA30BC70470000034803C85E
:10539000814201D10120704700207047503B00201E
:1053A000F0B502004FF0883019D0FF2A18D0002144
:1053B00001250F265FF00E0705FA01F4144208D00C
:1053C0004FEA810C06FA0CF3DC4307FA0CF3204099
:1053D0001843491CC9B20829EED34FEA3040F0BD4A
:1053E0004FF0EE30F0BD00000249084490F9300063
:1053F00070470000F833002070B5084C050009D054
:1054000010342168002907D00868206049682846C0
:105410008847F6E70834F4E770BD0000A0340020A8
:105420002DE9F05F26484168F1B3DFF898B00E68C7
:105430008146DBF8004087688078E11B21F07F45DA
:10544000ED1CB0B9DFF880804FF48030C8F8440319
:10545000C8F804031120FEF7C5FA1120FEF7CDFAB3
:105460004FF0010AC8F800A02F2001F05DFE89F876
:1054700002A0B54200D23546124BE8193C3320F069
:105480007F401860DBF800105A46091B21F07F416D
:10549000001B20F07F40C91C81420FD910681860A2
:1054A0002F2001F041FE00E004E0BDE8F05F112094
:1054B000FEF7AEBABDE8F05F03F040BBBDE8F09F79
:1054C000182B002004150140001001402DE9F04187
:1054D00007468179007879B1002102F087FB78785E
:1054E000002102F083FBBE784FF0FF34FF2E09D07D
:1054F000304602F084FB06E002F081FB787802F08F
:105500007EFBF0E72646FD78FF2D03D0284602F00B
:1055100076FB00E025463879FF2803D004460021B9
:1055200002F064FB074839787A78C0F86415C0F84F
:105530006825C0F86065C0F87055C0F86C45BDE8D6
:10554000F0810000005002402DE9F0411788064626
:10555000B81D14460D46984202D90C20BDE8F081D2
:105560003188072206290AD34FF4486C4FF6FF739F
:10557000614501D9994202D17088062801D21046AE
:10558000ECE7604501D99842F9D1994203D098429D
:1055900001D08142F3D80520E85520881221401C13
:1055A00080B2208029542088401C80B2208041197C
:1055B000308804F064FC2188084480B220804119BE
:1055C000708804F05CFC2188084420800020C5E736
:1055D00001A2AF21FEF726BE7372635C626C756533
:1055E000746F6F74682E630038B54A7A0F4B62B1DE
:1055F00000220A725969002906D001228DF8002084
:10560000ADF802006846884738BD0A7A62B19B68E7
:105610004C68024619462046FEF77EFE0028F3D06D
:10562000BDE8384003F000BC5B68F1E718350020A6
:10563000704700000E4910B50A784C780023A2424A
:1056400012D0521CD2B20A70022A00D10B70084A42
:105650000B780C3252F8232002608868104420F046
:105660007F408860012010BD0360002010BD000055
:10567000182B002030B50446006885B00D468068C0
:1056800000281CD014216846FDF7F3FE0195A068A0
:105690000490207910B101280DD104E001208DF88B
:1056A0000000206904E002208DF80000E06800039B
:1056B000029060690390206881686846884705B059
:1056C00030BD00000EB515A19DF8080020F00F00B8
:1056D000401C20F0F00010308DF808000A2202A8CB
:1056E0007CDF18B1104A7421FEF79CFD0020009069
:1056F00001901021ADF80400ADF800104FF4C8700F
:105700003C21ADF80600ADF8021068467ADF0028AB
:1057100003D0054A7E21FEF785FD0EBD467261630A
:105720006B73746F636B0000785202007047000067
:1057300010B50C490C4801F0BFFA20B10BA24FF490
:10574000C171FEF76FFD1721074801F0ABFA002881
:1057500006D0BDE8104005A240F28511FEF762BDFB
:1057600010BD00002D570200F03000207372635C02
:10577000626C7565746F6F74682E630010B500F00D
:10578000F0FA03F0BFFCFFF7EDFC074803210088A7
:1057900001EB004005A102F043FCC82001F060FBD2
:1057A000BDE8104000F0EEBF6C2C0020476F696E22
:1057B0006720746F20736C6565702E2E2E000000BC
:1057C00070B5254CA0421ED1F1B1012936D0022975
:1057D00028D0032917D1072000F0BEFE002812D1DF
:1057E00094F8680094F8691088420CD194F86A0023
:1057F000002808D10023D4E901501A460321A84704
:10580000012084F86A0070BD052000F0A5FE002884
:10581000F9D1A06864680023A446BDE870401A4628
:105820000121604710461900EDD00028EBD0027826
:10583000302AE8D1BDE8704000F0AEBE082000F08C
:105840008BFE28B9A068002364681A460221A0478D
:10585000BDE8704000F03ABF803F0020FEB522480E
:1058600087780A2F23D0214A0324072F16785578EA
:105870009378D1788DF800608DF8015086EA0500A4
:105880008DF802301AD04B4058408DF803108DF837
:105890000400FF2204210DF10500FDF7E3FD00BF28
:1058A0008DF809400A21684601F0F8F8FEBD03B002
:1058B0000A21BDE8F0400D4801F0F0B883F08803FC
:1058C00058408DF803008DF8041013798DF80530D9
:1058D00050798DF8060092795940504041408DF83A
:1058E00007208DF80810DBE7F42A0020943400200C
:1058F0000C4810B50268001D0168001D03680A48C5
:10590000140A02704470120C8270C1700A0A02718B
:105910000A0C4271090E8171C371190A0172190CC6
:10592000417210BD50040010943400201B491A48E5
:10593000897804292BD007292BD010F8011B10F8E7
:10594000012B090441EA022110F8012B1143144AEA
:105950001160022110F8012B10F8013B120442EAF9
:10596000032210F8013B1A430D4B1B1F1A600268FB
:10597000C07812BA22F0FF020243094808380260D8
:10598000042000EB811006490831086070470021AF
:10599000EDE70121DEE7000094340020F42A002026
:1059A0009855004070B50C00054613D00A4802F027
:1059B000D7FC0A480560094940F6FF700C3100EA3F
:1059C000C400086006481021C0F804130121C1601A
:1059D000002070BD0C2070BD1051004010550040DB
:1059E00000500040114A10B5D1605060907818B94D
:1059F00007209070FFF77CFF0D480621C0F80413C4
:105A00000C49C0F80413FFF791FFFFF727FF074881
:105A10000949103041600021016001F017FC18B104
:105A2000852801D0032010BD002010BDF42A0020DD
:105A300000500040800008005183020009490D20F9
:105A400008600949012088604FF0E0212020C1F85A
:105A50008002E0224B1D83F80024C1F800010020E1
:105A600070470000045400400050004002490120EB
:105A700048600020704700000050004010B502F060
:105A8000FDFD08B140DF10BD05490120086001207F
:105A900001F0D8F90028FAD10249487010BD000081
:105AA00004000040A03400200146034802888A42D6
:105AB00000D0002070470000043500202DE9FC5F75
:105AC0000E008346DDE90C47C6F100009846924679
:105AD000814600D40846012503E000BF90FBFAF0A0
:105AE0006D1C5045FADAA84500D9454624B1002E70
:105AF00001DB780700D5641EB80702D5B8F1000FA6
:105B00000AD0F80708D13CB1A54205D22021584659
:105B1000641EFFF72BFCF6E7002E02DA4E462D211D
:105B200002E0780703D52B215846FFF71FFC07F04A
:105B3000030002280BD1B8F1000F08D13CB1A542F7
:105B400005D230215846641EFFF710FCF6E7CDE978
:105B50000047434652463146584604F095F9BDE8A1
:105B6000FC9F70B50C464FF488760546314602F02E
:105B70003BFC50B13146284602F03BFC60794007BF
:105B800003D5216809B1012088474FF48A76314650
:105B9000284602F029FC50B13146284602F029FC83
:105BA0006079000703D5216809B1022088474FF4C6
:105BB0008E763146284602F017FC50B13146284611
:105BC00002F017FC6079C00603D4216809B10020F7
:105BD00088474FF482763146284602F005FC0028BB
:105BE0000CD03146284602F004FC012020712168C7
:105BF000002903D0BDE870400320084770BD2DE99F
:105C0000F84300251646884604462F4614E04FF414
:105C1000A07000EB85004FF480312258A9404AB1B2
:105C2000D4F804230A4205D0275021580091D8E91E
:105C3000002190476D1CEDB2B542E8D3BDE8F88372
:105C40007FB50C46054691F8211094F82000CDE967
:105C5000000104F12602D11E2846E36903F022FE6A
:105C6000002823D194F8230008BB207B022801D010
:105C700003281CD12269E169914218D16269E2616D
:105C8000E37B84F82030217E0328C1F3401184F89F
:105C9000211006D004B029462046BDE8704003F02C
:105CA0008ABD00912946204603F081FE7FBD04F1A4
:105CB0000C0001AB07C883E8070094F8230000211B
:105CC00068B1D5F8C404C5F8C404820701D5012021
:105CD00002E0400705D502208DF8000001E08DF8B4
:105CE000001084F82410207E4007DFD4D4E900217E
:105CF000684690477FBDF0B58488A518944200D8C7
:105D00002246A41AC288D6189A4200D81346D21A3C
:105D10004B880788BB420CD34088834209D88888C7
:105D2000A04206D3A84204D8C888904201D3B0420A
:105D300001D90020F0BD0120F0BD0268134602E049
:105D40008A4204D01268002AFAD10B6001607047C1
:105D50004FF0A0411020C1F808054FF47A7001F00F
:105D6000CBB84FF0A0411020C1F80C0570470000DF
:105D700010B588B000240122042000942346114667
:105D8000019401F0FDFE4FF0A0411020C1F80C0578
:105D90000320CDE900040122002311460D2001F06B
:105DA000EFFE1422184902A8FDF74AFB1D208DF8CA
:105DB00008000D208DF80B004FF0C05005908DF8B5
:105DC0000C408DF818408DF81240104902A801F0DF
:105DD00093FA18B10EA27C21FEF724FA0F49002095
:105DE00041F82040401C80B2D428F9D30023D422AB
:105DF0000A49184601F0D4FA002803D004A28421ED
:105E0000FEF710FA08B010BD4CA102003156020096
:105E10007372635C6C6564732E630000842C0020D5
:105E20002DE9F0430E4607463C2902D93C260024C2
:105E300001E0002418E004EB4405785DFFF7B0FAB8
:105E4000DFF82C9005EB070849F8250098F80100C9
:105E5000FFF7A6FA09EB8505686098F80200FFF7DE
:105E60009FFA641CA4B2A860B442E4D3BDE8F083F6
:105E7000842C002006490120086006480168C1F30F
:105E800000410029FAD104490020887070470000C1
:105E90000C00004018040040A034002017210180AD
:105EA00041800021017141711B218171C1717047D5
:105EB00010B503F04FFC0A2001F0AAF809480F21A1
:105EC000821CC170817001232921074801F082FCE6
:105ED000002805D0BDE8104004A27421FEF7A2B945
:105EE00010BD0000842A002084A102007372635C4C
:105EF0006C69733364652E63000000002DE9F04780
:105F0000394E002780463D46DFF8E090D6F804A0E1
:105F100057E003D00446D0F81C8035E099F8002003
:105F200002EB4201521CD2B289F8002009EBC101F8
:105F300099F80230091D9A4201D189F80050486849
:105F40000A780446012A12D0022A02D0032A3BD141
:105F500008E003F0A9FA00B10127257434E00574C4
:105F6000C06900E070680028F9D170602CE0207CE6
:105F700050BB88686060C868A0600869E0604869D4
:105F8000A061F07800B165606268B168184B501A82
:105F900020F07F40984202D2A168084406E0881AA7
:105FA000A16820F07F40814202D9081A206000E0F9
:105FB000256065600120A56020742046E56103F03E
:105FC00055FAB8F10000A4D199F8001099F8010031
:105FD0008142A3D117B97168514502D00120BDE8B3
:105FE000F0870020FBE70000182B0020343500204C
:105FF000FFFF7F0070B588B0214800F0F2FD204817
:10600000001F064600F0EDFD1E4DD5E9014105E0FB
:10601000C0F3891202EB9050641C044404EA0100AE
:1060200005EB8000C0688207F2D000200DF1080265
:1060300004EA010305EB8303641CDB6842F82030AB
:10604000401C0228F4D3029800F00300012808D075
:1060500002280AD10298032101EB905004EB90042E
:1060600003E00298C0F3831004443046002101AAE3
:10607000FDF79BF9002800D06C6008B070BD0000EF
:10608000683F0020503B00201CB5002002F03CF887
:1060900018B157A2A721FEF7C5F801F0BBFE574E75
:1060A000032557A1308805EB004001F0B9FFFFF749
:1060B000FFFE564800F086FBFFF75AFE03F00AF990
:1060C000534A54495448FFF763F8FFF7EDF8534C2F
:1060D000012053A12070308805EB004001F0A0FFA3
:1060E0000A2000F0BDFE03F049F9514802F0E4FF38
:1060F0000020607030884FA105EB004001F090FF58
:1061000064274FF47A7800BF01F092FE012000F07E
:10611000A7FEE088401C80B2B0FBF7F107FB11003E
:10612000E0802189491C89B2B1FBF8F308FB131107
:10613000218110B903F0A4F8206120890028E3D15F
:1061400003F0BEF8607190B130883FA105EB0040CC
:10615000226901F069FFFFF7FBFD304AA178103298
:10616000012002F00BFC642000F07AFE08E02069B8
:10617000052808D830883AA105EB004001F050FF0F
:10618000FFF7EFFD01E0FFF7E3FD207802281DD1C6
:106190003AA1D1E90001CDE90001207C8DF8010090
:1061A00060788DF80200E0788DF80300E068010E59
:1061B0008DF80410010C8DF80510010A8DF80610F9
:1061C0008DF8070003216846FFF764F8607800281F
:1061D0009AD12078032897D16079002894D16089DA
:1061E000401E0004000C60818ED1FFF7C7FA8BE7D8
:1061F0007372635C6D61696E2E6300006C2C00200D
:10620000537461727475702E2E2E0000256A020080
:10621000694A02003D440200C14A0200682A002087
:10622000496E697469616C697A65642E00000000CA
:106230003D910200416374696E6720617320536C65
:106240006176652E000000004368617267696E67C1
:106250002E2E2E20426174746572793A20256900D1
:1062600042617474657279206C6F772C2064697355
:1062700061626C65204C4544730000000100000021
:106280000000000070B5144682880E46054620883E
:10629000111D0144921C994201D8FE2A01D90C20FB
:1062A00070BD521C32542088FF21401C80B22080D7
:1062B00031542088401C80B220808119288803F046
:1062C000DEFD2188084480B22080AA8842B1A968F6
:1062D00041B13044FDF7B4F82088A98808442080F3
:1062E000002070BD072070BD70B51D4D6878002876
:1062F00034D11C4E59203C21308005F12000B06083
:106300000E20B080A6F13C00FDF7B3F8A6F13C00EA
:10631000002404702978C17021464662FEF76BF9AB
:1063200020B111A240F2D311FDF77CFF0D480321EB
:1063300054388460C46004614461083001700472A0
:106340004FF4A07141818481022173DF20B106A244
:1063500040F2DF11FDF766FF0120687070BD00009C
:10636000942A0020283200207372635C626C756589
:10637000746F6F74682E630030B4084C6078002826
:106380000AD074DF00216170002805D030BC04A25F
:106390004FF4F571FDF746BF30BC7047942A0020DA
:1063A0007372635C626C7565746F6F74682E6300E2
:1063B0002DE9F047C7880446181D16468946B0FBEC
:1063C000F7F1B0FBF7F207FB12009A193A44D21C1E
:1063D000B2FBF7F2DDF820A001E02468491E002995
:1063E000FBD13D1A8846B54216D818E0BAF1000F25
:1063F00005D0211809EB08002A46091D04E02044B5
:1064000009EB08012A46001DFDF71AF80020246850
:10641000761BA844B74201D9354600E03D46002E20
:10642000E4D1BDE8F087000030B5024669B101F063
:1064300099FE0021084C0BE001EB410304EB8303C0
:1064400015685B88AB4202D11160002030BD491C49
:106450008142F1D3052030BDB82B0020F8B50E469F
:10646000017814460546012901D1687830B12088A9
:10647000821C9A422DD8012902D006E00720F8BDDF
:1064800069780144891C994223D8181A801E87B262
:10649000ADF800702188B01C084469467DDF0028F3
:1064A000EDD12878022805D1BDF80010B94201D8F5
:1064B00009210AE00821012805D16878B84202D8EC
:1064C000ADF8000001E0ADF80070BDF80000FE2856
:1064D00001D90C20F8BD2288401CB0542088401CF3
:1064E00080B2208031542088401C2080BDF80010EC
:1064F000084420800020F8BD10B51C46934200D906
:1065000014462246FCF79CFF204610BD10B51C46E1
:10651000934200D914460A462146FCF7A3FF2046C1
:1065200010BD00000B4900F1100213464A610A69D0
:1065300013448B6128B14FF47C73CB614FF48063BB
:1065400001E00023CB61C01C104480080B6281F87D
:1065500069007047803F002070B50D4D0D4A002145
:106560002C7800BF01EB4103D65CA6420AD113444C
:106570005B78834206D101EB41001044807828709B
:10658000002070BD491C0E29ECD3082070BD00000E
:10659000803F00208C2B002070B50446022920D1BA
:1065A0000620FFF7D9FF00281BD10E4964784B69FC
:1065B000A2002046934208D88D69103D954204D32D
:1065C000C968C3EB8400084403E000F017F80548ED
:1065D00038301021FFF7E6F92046BDE8704000F0A2
:1065E00099B870BD803F0020034902684A62426842
:1065F0008A62008988857047803F00202DE9F0413C
:10660000264F8400102529463846FCF732FFA7F1B3
:1066100038067069A0420BD9021B31192B46384647
:106620002431FFF769FFD0F110050444074432D04C
:10663000B069A0420CD970693169201A0A1AF16850
:106640002B4601443846FFF757FF2D1A04440744F0
:10665000002D20D0F069A04209D9021B2B46002151
:106660003846FFF753FF2D1A0444074413D0306A0D
:10667000A04208D9021B2B46FF213846FFF746FFF0
:106680002D1A074407D02B463846BDE8F0411A467C
:106690000021FFF73BBFBDE8F0810000B83F0020BC
:1066A00070B50C460546914201D90C2070BD012001
:1066B000FFF752FF08B1082070BD05B90024024859
:1066C000C0E90354002070BD803F002070B5002158
:1066D00003230A460C460E4801260CE006FA03F591
:1066E0000D43E9B25B1E05D5831883F848100723D4
:1066F0000021521C641C90F86950A542EEDC024453
:1067000082F84810002100F8681F817070BD0000F9
:10671000803F0020F0B5C208514200EBC1010024C7
:10672000124BC1F107010125042813D305FA01F624
:1067300003EB020CF7B29CF848603E4204D0BE4323
:106740008CF848602E4600E0002693F868703E44BE
:1067500083F86860491E01D50721521C401C10F0C7
:10676000FF0002D0641C042CDEDBF0BD803F002063
:10677000012904D102484068002800D00047704732
:106780007C2A002010B500F07CF9084C2060FEF750
:10679000A3FD206018B106A25E21FDF743FD074866
:1067A00000F0F0FB06490120086010BD7C2A0020A3
:1067B0007372635C6E66632E63000000A086010046
:1067C000000500400EB5154948600021144800F04E
:1067D00093F94FF48070029002A91248CDE90001AC
:1067E00000231A461C21104800F026F818B10FA209
:1067F0004E21FDF717FD0B48029900F05DF918B125
:106800000AA25221FDF70EFD00F030F9002803D056
:1068100006A25521FDF706FD0EBD00007C2A0020D2
:1068200071670200D42F002060A102007372635CC4
:106830006E66632E630000002DE9F0410446204897
:1068400098B015460F46DDE91E86D0E90112CDE964
:10685000011216A90091D0E903128069CDE9055013
:10686000CDE9031216498DF8183018221C3109A8F9
:10687000FCF7E6FD03A80E901149CDE90747182261
:1068800034310FA8FCF7DCFD07A814902DB109A93D
:10689000684600F063F800280DD12CB10FA96846B6
:1068A00000F05CF8002806D1029838B13246414623
:1068B000684600F01AF818B0BDE8F0810720FAE742
:1068C000E4A2020070B515460B00044609D0286802
:1068D0006268904201D2042070BD18462168FCF71E
:1068E000AFFD60682860002070BD2DE9F843904638
:1068F000894607004FF0000606D0B8F1000F03D01C
:106900003D680DB1002422E00E20BDE8F88324B1DB
:10691000611C884207D1402106E0012801D0802176
:1069200002E0C02100E00021D8F800006B46801B87
:1069300000904A46286800F01FF80028E5D100982A
:10694000B9F1000F064400D08144641C2D1DB868C5
:10695000A042DCD80020C8F80060D6E7D0E90132B8
:106960009A4201D304207047036843F822108168DB
:10697000491C8160002070472DE9F8431446984671
:106980000A4605004FF000074AD06878297A461871
:10699000B61D00B1761C8CB332F0C00002D00720C7
:1069A000BDE8F883D8F80000B04201D20420F7E730
:1069B00022702B78601C1A4322702A7A00F8012B6F
:1069C00021460746041D687828B104F8010B0878B1
:1069D00040F0080008702A7A2046E968FCF730FD8C
:1069E000287A6A7804442AB120466968FCF728FDB1
:1069F00068780444D8F80000801B00902B697BB1B4
:106A00006A462146686998470028C9D114B10098A0
:106A100000BA3860009831180020C8F80010BFE7AD
:106A20000E20BDE710B5084C207803280BD107488D
:106A30000321008801EB004005A101F0F1FAFEF707
:106A400033FC0120207010BD682A00206C2C00202F
:106A50005374617274204164766572746973696EEF
:106A600067206279204E46430000000010B50420E4
:106A7000FFF772FD08B1082010BDBDE81040FEF719
:106A8000DDBF10B5FEF7F2FF04460920FFF764FDF5
:106A900008B1082010BD204610BD000010B518B187
:106AA0000A2902D00C2010BD0248FFF79DFD0020EE
:106AB00010BD000070A4020010B54FF47772FFF70C
:106AC000EFFD040013D10B480322016900F8342FB5
:106AD000FE2902D84170022005E0FF2242700A0A16
:106AE0008270C1700420FFF71DFDFFF7EFFD204607
:106AF00010BD0000803F002070B50E46050005D097
:106B00000020FFF729FD18B1082070BD072070BDD7
:106B10000B4C0C48C4E901561434FFF765FDFF2007
:106B2000A076E076E1202077112060777C20A077A6
:106B30000F20E077BDE8704001490348FEF752BFDF
:106B4000803F002070A40200C15702002DE9F047E9
:106B5000164604460279007B1518ED1D41B33068D6
:106B6000A84202D20420BDE8F0874FF0000801F8E7
:106B7000018B4FF0010981F800904F1C207907F834
:106B8000010B227938462168FCF75AFC207907442A
:106B9000207B07F8010B227B3846A168FCF750FCEC
:106BA000207B2021384480F8008080F8019081709B
:106BB00000203560D7E710B50A8849888A4203D19A
:106BC000FCF7B8FB012010BD002010BD70B50C46CD
:106BD0000546FCF792FB002802D06188286808442B
:106BE00070BD08B501216A46FCF7D2FB009808BDCC
:106BF00038B5044600258DF800506846FDF7E0FBE7
:106C000021686268086890420ED9401E08600178C9
:106C1000238AE26801FB0325227A2168101AC0B298
:106C20000A79824200D208719DF80000FDF7ECFB62
:106C3000284638BD38B5054600208DF800000C46C2
:106C40006846FDF7BDFBE868298A201AB0FBF1F120
:106C50002A681068431C136001709DF80000FDF75E
:106C6000D3FB38BD10B530B1017A42680368891A88
:106C7000C9B21A6006E00E2010BD03681A68541CE1
:106C80001C601170491EC9B2F7D200680021017161
:106C9000084610BDC20800F007030120895C984037
:106CA0000840704718B1172903D0072070470E20FD
:106CB000704701800020704710B560B10161172155
:106CC00020F8021B20F8021B1B2100F8021BFFF713
:106CD000E5F8002010BD0E2010BD00002DE9F043A6
:106CE000858895B00C46002D3DD10188DFF82481C0
:106CF0000026DFF82491012724293CD006DC102946
:106D000009D011290CD023296DD150E03A290BD09C
:106D1000552968D12AE00146204601F0A7FD62E02E
:106D2000A01DFFF7BBF85EE02246408934F8061F3D
:106D3000814200D808466080172800D21720608062
:106D4000106970B1607960B1D8E90010CDE9031025
:106D5000ADF80E506088ADF81000136903A9104615
:106D600098476671267115B0BDE8F083014620464C
:106D700001F0CAFD37E0011D342206A8FCF760FBD4
:106D8000BDF81800BDF81C2004EBC0014A7322694D
:106D90004AB3D8E90432CDE90432ADF81200487B99
:106DA0008DF814002269204604A990471BE0049640
:106DB000059630F8041F04EBC1020179127B8A4268
:106DC00000D21146ADF81010ADF812100088002264
:106DD00004A990DF020006D0B9F800000F4907EBC4
:106DE000004001F021F9A07A0028BCD0E1882846B3
:106DF0009EDF02000BD0112AB5D0B9F8000015B003
:106E000007EB0040BDE8F043054901F00DB9A6725B
:106E1000E772A8E740A30200242C002090A80200FB
:106E200008A8020000F180400068002800D001207E
:106E3000704708B500F180400021016000680090B3
:106E400008BD00000549096840F4803001F00111D7
:106E5000814201D101207047002070470C0400409E
:106E60004FF47A71484300F001B8000000283ED08A
:106E70001F49204A096800BF00BF00BF00BF00BF14
:106E800000BF00BF00BF91422FD000BF00BF00BFB6
:106E900000BF00BF00BF00BF00BF00BF00BF00BFFA
:106EA00000BF00BF00BF00BF00BF00BF00BF00BFEA
:106EB00000BF00BF00BF00BF00BF00BF00BF00BFDA
:106EC00000BF00BF00BF00BF00BF00BF00BF00BFCA
:106ED00000BF00BF00BF00BF00BF00BF00BF00BFBA
:106EE00000BF00BF00BF00BF00BF0138C3D1704763
:106EF000882B00200024F40000283ED01F49204A9F
:106F0000096800BF00BF00BF00BF00BF00BF00BFD7
:106F100000BF91422FD000BF00BF00BF00BF00BF25
:106F200000BF00BF00BF00BF00BF00BF00BF00BF69
:106F300000BF00BF00BF00BF00BF00BF00BF00BF59
:106F400000BF00BF00BF00BF00BF00BF00BF00BF49
:106F500000BF00BF00BF00BF00BF00BF00BF00BF39
:106F600000BF00BF00BF00BF00BF00BF00BF00BF29
:106F700000BF00BF00BF0138C3D17047882B00207D
:106F80000024F40000283ED01F49204A096800BFB1
:106F900000BF00BF00BF00BF00BF00BF00BF9142E5
:106FA0002FD000BF00BF00BF00BF00BF00BF00BFA9
:106FB00000BF00BF00BF00BF00BF00BF00BF00BFD9
:106FC00000BF00BF00BF00BF00BF00BF00BF00BFC9
:106FD00000BF00BF00BF00BF00BF00BF00BF00BFB9
:106FE00000BF00BF00BF00BF00BF00BF00BF00BFA9
:106FF00000BF00BF00BF00BF00BF00BF00BF00BF99
:1070000000BF0138C3D17047882B00200024F40052
:1070100000283ED01F49204A096800BF00BF00BFBA
:1070200000BF00BF00BF00BF00BF91422FD000BF14
:1070300000BF00BF00BF00BF00BF00BF00BF00BF58
:1070400000BF00BF00BF00BF00BF00BF00BF00BF48
:1070500000BF00BF00BF00BF00BF00BF00BF00BF38
:1070600000BF00BF00BF00BF00BF00BF00BF00BF28
:1070700000BF00BF00BF00BF00BF00BF00BF00BF18
:1070800000BF00BF00BF00BF00BF00BF00BF01388E
:10709000C3D17047882B00200024F40000283ED084
:1070A0001F49204A096800BF00BF00BF00BF00BFE2
:1070B00000BF00BF00BF91422FD000BF00BF00BF84
:1070C00000BF00BF00BF00BF00BF00BF00BF00BFC8
:1070D00000BF00BF00BF00BF00BF00BF00BF00BFB8
:1070E00000BF00BF00BF00BF00BF00BF00BF00BFA8
:1070F00000BF00BF00BF00BF00BF00BF00BF00BF98
:1071000000BF00BF00BF00BF00BF00BF00BF00BF87
:1071100000BF00BF00BF00BF00BF0138C3D1704730
:10712000882B00200024F40000283ED01F49204A6C
:10713000096800BF00BF00BF00BF00BF00BF00BFA5
:1071400000BF91422FD000BF00BF00BF00BF00BFF3
:1071500000BF00BF00BF00BF00BF00BF00BF00BF37
:1071600000BF00BF00BF00BF00BF00BF00BF00BF27
:1071700000BF00BF00BF00BF00BF00BF00BF00BF17
:1071800000BF00BF00BF00BF00BF00BF00BF00BF07
:1071900000BF00BF00BF00BF00BF00BF00BF00BFF7
:1071A00000BF00BF00BF0138C3D17047882B00204B
:1071B0000024F40008B500208DF800006846FDF7B3
:1071C000FFF806484168491E4160406808B9FEF76B
:1071D00055FC9DF80000FDF717F908BDA03400200C
:1071E000F8B5194D04466878002648B114B16168B5
:1071F000002088478DF800606846FDF7E1F81AE046
:107200008DF800606846FDF7DBF824B10E48214692
:107210000830FEF792FD686868B901F02FFA08B1EE
:107220003FDF08E04FF48070FFF703FE0120810785
:10723000C1F8040308606868401C68609DF800009D
:10724000FDF7E2F8F8BD0000A034002070B50F4C47
:107250000025207808B1852516E00021A160616035
:107260002161E1604FF0E020D0F80001012610F02C
:10727000010F03D10721002000F022F801F0FEF9F0
:1072800008B9034806602670284670BDA034002067
:107290001805004008B500208DF800006846FDF78D
:1072A0008FF80648C168491EC160C06808B9FEF77A
:1072B000E1FD9DF80000FDF7A7F808BDA03400200F
:1072C0004907090E002806DA00F00F0202F1E02259
:1072D00082F8141D03E000F1E02282F8001400F0AF
:1072E0001F02012191404009800000F1E020C0F818
:1072F0008012C0F8001170472DE9F047254D044673
:107300008A46287910B10820BDE8F08704B9224CDC
:107310004FF00009A67994F8078094F808C0627AC3
:10732000A77A217CE36886B9012A02D0022A03D019
:107330000BE0012928D008E031B3022924D0042928
:1073400022D0062920D008291ED01448C0F8046590
:10735000C0F82485C0F820C5C0F81C25C0F82875E1
:10736000C0F8181501268BB1C0F81435C0F81065A7
:107370002046FEF7ABF8C5F800A061792520FFF79D
:107380009FFF2E710020BFE70720BDE7C0F81095D2
:10739000EEE70000703F00205CA4020000500240B5
:1073A0002DE9F047304C0746994620790E464FEAC2
:1073B0005208012802D00820BDE8F0871FB13846E6
:1073C00000F056F860B11EB1304600F051F838B107
:1073D000264DC5F85085C5F838751FB1012002E06B
:1073E0001020E9E70020C5F80805C5F84065300021
:1073F00000D00120C5F80C05C4E90276A4F8068087
:107400006179304641F00801424661715FEAC97313
:1074100006D02FB120B121F0060141F0010101E0B9
:1074200021F0010161710126C5F800650221217179
:1074300050B16179C90703D09100FCF71AF803E055
:1074400001462368002098474FF48271284600F0D7
:1074500024FC4FF48A71284600F01FFC2220C5F856
:1074600004032E600020A7E7703F00200050024078
:107470000121B1EB507F01D10120704700207047FE
:1074800070B50C4614490546087C08B1112070BD42
:107490002079124E08B1012801D10020306001EBA3
:1074A0004500027F1AB911F82D2F521C0A70E1799C
:1074B0000177217A41772146284600F0A9FF227AF8
:1074C000E179284600F0D8FF207908B1012801D1E0
:1074D00001203060002070BDB434002000750040F1
:1074E0002DE9F0411D4C054694F82C0010B1082000
:1074F000BDE8F08109B115B102E00720F8E7184DA9
:1075000044F8101B174928780860091D687808603E
:10751000E878A077012727770020207060776060E7
:10752000114EE0776FF00040C6F808034FF4827008
:1075300000F0B4FFB01500F0B1FFA9780720FFF705
:10754000BFFE0220C6F80403A07F10B10120C6F8D8
:1075500004030448F03807600020C9E7B434002071
:107560003CA30200F0750040007000402DE9F0419E
:107570002C4D80460B46287C10B11120BDE8F081CF
:1075800001242C74284E0322C6F8082321461846ED
:1075900000F036FF95F82D00012808D900270022B9
:1075A000F8B2114600F068FF7F1C082FF7D305EBF7
:1075B0004800427F017F404600F05EFF00273460B4
:1075C0001948001D046042F210744FF4827800E004
:1075D000641E404600F05AFF08B9002CF8D14FF461
:1075E000807000F05BFF404600F058FF95F82D00DA
:1075F00001280BD95FF0000405EB4400427F017FB6
:10760000E0B200F039FF641C082CF5D395F82E0089
:1076100008B1032000E00220C6F8040338462F74A6
:10762000ACE70000B43400200070004030B54FF4E7
:10763000803405688C4013B1C5F8044301E0C5F8F7
:107640000843006800EB8100C0F8402530BD000011
:10765000016801220A600079034A00EB400002EB56
:107660008000022101727047C0330020F0B404682A
:10767000049E40F20115D4F800728D40AF43C4F867
:1076800000720468D4F800521D43C4F80052334617
:10769000F0BCFFF7CBBF0000F8B504460D460079FB
:1076A000204900EB400001EB8006307A08B1082049
:1076B000F8BD3AB1326068687060002003464FF44C
:1076C000A07709E00720F8BD226807EB800153503E
:1076D0005158401CC0B2009161798142F4D82068B1
:1076E000E978000B40B2FFF7EBFD20686978D0F82D
:1076F000042561F30102C0F804252068A978D0F8B8
:10770000082561F30102C0F8082520682978D0F81F
:10771000102561F30302C0F810250120307200200B
:10772000F8BD0000C03300200179064A01EB810159
:10773000006802EBC1010522C0F80025022081F893
:10774000220070475C34002070B506460D46007973
:107750001F4900EB800001EBC00494F8220008B13F
:10776000082070BD0020C4E90023A06084F8250033
:1077700084F82400A87B84F82700687B10B1284691
:1077800001F020FF296840F20C60890001F1A0415E
:10779000C1F800076968890001F1A041C1F800073C
:1077A000D5E900123068C0F80815C0F80C25A968A2
:1077B000C0F82415206828B13068297B000B40B23E
:1077C000FFF77EFD012084F82200002070BD00003C
:1077D0005C3400203EB5074D2C68AD6800948DF8F0
:1077E0000110019202958DF802300022694600F0E6
:1077F00015F83EBD30A302003EB500250095069C5D
:107800008DF8011002958DF8023001920CB1202202
:1078100000E00022694600F001F83EBD30B4037973
:10782000084C03EB830304EBC304930702D030BC82
:1078300006207047006813460A460146204630BCC1
:1078400002F01DB95C3400200FB408B5039900297B
:1078500004D004AA00926A4600F00FF801B05DF867
:1078600014FB10B582680446002A05D0D4E904034D
:10787000216898470020A06010BD2DE9FC47914683
:107880000C00804676D014F8011B39B125290ED0A2
:107890004046FDF76BFD20780028F4D198F80C00E5
:1078A000002867D04046BDE8FC47FFF7DABF00205C
:1078B000012221782B291BD02D2902D0302908D173
:1078C00002E040F0010001E040F00200641C002AE8
:1078D000EFD100252A290ED02178A1F130020A2A01
:1078E00011D205EB850201EB4205641C303DF1E746
:1078F00040F00400EAE7D9F800100B1DC9F8003089
:107900000968641C0D44217800232E290BD114F83A
:10791000011FA1F130020A2A05D203EB830201EB19
:107920004203303BF3E76C290DD068290BD069295D
:1079300021D00BDC252918D0582931D063290ED04D
:10794000642915D117E014F8011FECE7702969D0FC
:10795000732932D075291BD0782909D120E0D9F8B4
:107960000000011DC9F8001001784046FDF7FEFC3B
:10797000641C90E76CE0D9F800100A1DC9F80020DB
:107980000968CDE900500A224046FEF797F8EFE774
:10799000D9F800100A1DC9F8002009680A2206E07B
:1079A000D9F800100A1DC9F8002009681022CDE995
:1079B0000050404602F068FADAE7D9F800100027D4
:1079C0000A1DC9F800200E68C00705D112E0404624
:1079D000761C7F1CFDF7CAFC31780029F7D104E042
:1079E000202140466D1EFDF7C1FCBD42C0D9002DCF
:1079F000F6D1BDE74EB13046FBF746FD074604E041
:107A0000202140466D1EFDF7B1FCBD4206D9002D78
:107A1000F6D103E04046761CFDF7A8FC317800293A
:107A2000F8D1A5E7D9F80000011DC9F800100568D4
:107A300030214046FDF79AFC78214046FDF796FC40
:107A400008200021CDE90001034610222946B0E7B5
:107A5000BDE8FC872DE9F04128B1016819B1C96979
:107A6000BDE8F04108470D4D0D480024461B142782
:107A70000DE000BF04EB840005EB8000016829B134
:107A8000C969884710B10120BDE8F081641CB6FBCC
:107A9000F7F0A042EED80020F6E70000000000005A
:107AA00000000000044801214174007A08B1002060
:107AB000704701207047000084370020012801D062
:107AC000032808D10449002201284A7400D000206C
:107AD000087400F0E7BF70478437002070B5254C6C
:107AE0000246207A012837D0022841D122480023BB
:107AF000022A006802D0032A2ED11BE0E36001793C
:107B000011B1012928D10DE0D0E90565711B4FF4B1
:107B10008056B14200D33146294481614569A9426A
:107B20000ED019E00169491C01614269914213D1EB
:107B3000237217E0E168491CE16008290CD9E36071
:107B40002372022A0ED00D21FDF794FD0B480A493D
:107B5000091D0068FFF72FF8607C28B1BDE8704070
:107B600000F092BD0021EFE7BDE8704000F09ABF41
:107B700070BD0000843700202C2B00201CA40200C4
:107B800070B541EA4201DDE904564FF0A04441EAF4
:107B9000830141EA052104EB800041EA0641C0F877
:107BA000001770BD70B541EA4201DDE904564FF09F
:107BB000A04441EA830141EA052104EB800041EA47
:107BC0000641C0F8001770BD70B541EA4201DDE919
:107BD00004564FF0A04441EA830141EA052104EB39
:107BE000800041EA0641C0F8001770BD1CB50022B4
:107BF0000B46009211460192FFF7E6FF1CBD1CB533
:107C0000002100910B46012201911146FFF7DCFF94
:107C10001CBD4FF0A04202EB8000D0F8002722F4F8
:107C20004032C0F80027D0F8002742EA0141C0F8EE
:107C3000001770474FF0A04201218140C2F808159B
:107C40007047000018B5084B6C4601441B68009350
:107C500006E000BF54F82030D3F81035401C08C2AD
:107C60008142F7D818BD0000ACA10200034908B555
:107C70000844002101600068009008BD00600040D9
:107C800002494058012800D00020704700600040A1
:107C90004058002800D00120704708B5002242500B
:107CA0004058009008BD000030B5124B014600203E
:107CB000D3F81044224609E0157A854205D1401CCC
:107CC0000A28F7DB4FF0FF3030BD5268002AF3D1AD
:107CD000421CF9D00872D3F810242AB152684A60C5
:107CE000D3F81024516030BD0022C3F810144A604C
:107CF00030BD0000503B00207047FBF78FBF70473E
:107D000008B5034A00924023024A00F005F808BD76
:107D1000398E0200503A0020F0B595B01C46154649
:107D20000F4608461A9E00F0EDFA182109A8FBF745
:107D3000A0FB0E96CDE909540023082203A938467A
:107D400000F0FAFA059806900498ADF81C0000209F
:107D50008DF820000398082600F00300012802D0C7
:107D600002281DD03CE003983346850AC0F3C200C8
:107D70008DF81E0003980FA9C0F380008DF81F0036
:107D80000398C0F38314A200384600F0D5FA09A87E
:107D9000009006AB22460FA9284600F00FFA1FE01C
:107DA0000398840DC0F3C2008DF81E000398C0F341
:107DB00080008DF81F00082C01D2254600E0082520
:107DC00033462A460FA9384600F0B6FA2E44641B03
:107DD00009AB06AA29460FA800F040F9002CEAD109
:107DE000384600F098FA15B0F0BD0000084A0129A5
:107DF00002EBC00005D0022903D0032903D00429D7
:107E000003D0002070470079704740797047000028
:107E10005CAB020010B5FFF770FF04210348FFF7C9
:107E200043FF02490120487210BD0000342B00209E
:107E30002DE9F04F8DB0FDF7A9FA18B100200DB073
:107E4000BDE8F08F74480021C0F81814BFF34F8FBD
:107E5000D0E9014604EA060100EB81014FF0000978
:107E60000AE000BFC1F3891202EB9151641C0C447B
:107E700004EA060100EB8101C9688A07F2D00021FB
:107E800003AA804604EA060008EB8000641CC06870
:107E900042F82100491C43460229F3D3039800F01D
:107EA0000300022806D0012803984FD0C043800762
:107EB0007ED0ACE003985022810D8A46B2EB905FF1
:107EC00000D850210D4665F39F5003900831534868
:107ED00000F0CFF907006CD000F014FA4B460822EE
:107EE00003A9384600F02EFA04EA0601701A800051
:107EF000001D09F1080B854221D9474E0C3630B1DF
:107F0000C2B208EB8101281A91460C3104E03146D7
:107F1000EAB2002691463046C5B25B46384600F0CC
:107F200011FA0BEB09032EB12A4631464FEA07003E
:107F300000F008FA0AF1030004EB90043BE008EBC0
:107F400081015B462A4638460C31F1E7C0F38310C5
:107F5000062800D30620039960F38911C1F383102A
:107F6000801C039181002D4800F083F907004ED05A
:107F700000F0C8F94B46082203A9384600F0E2F9A0
:107F800009F1080900250DE004EA060008EB80016C
:107F90004B46042238460C31641C00F0D3F909F139
:107FA00004096D1C0398C0F38310A842ECD801E0CB
:107FB0000BE02CE05FB3D8F81054D8F8180446460C
:107FC00090B1384600F0A7F921E0D3F81804002852
:107FD0003FF435AF1BE0687A012804D129682846B0
:107FE0000A68394690476D68002DF4D1384600F094
:107FF00092F900208DF800006846FCF7E1F9D6F808
:10800000180400B974609DF80000FCF7FDF9FDF755
:10801000BDF980F0010012E7503B002038A40200B7
:1080200000231A4601F0E4B808B5012300926A461D
:1080300001F0DEF808BD1CB5CDE9002302236A4635
:1080400001F0D6F81CBD7FB5DDE908458DE83C00A0
:1080500004236A4601F0CCF87FBD00002DE9F0470B
:108060000E4680461C46924608293ED894F80C904D
:10807000002020731946104600F0E6FC0025B542AA
:1080800006D218F805201AA12046FFF7DDFB03E011
:1080900019A12046FFF7D8FB6D1C082DEFD317A1BF
:1080A0002046FFF7D1FB0025B54210D218F8057025
:1080B000FBF7C2F90068C05D10F03E0F01D03A46F0
:1080C00000E02E220EA12046FFF7BEFB03E00DA12B
:1080D0002046FFF7B9FB6D1C082DE5D30122214690
:1080E000504600F093FC84F80C90BDE8F087000047
:1080F0002025303278000000202020007C00000085
:108100002563000020000000114810B5FF218160A8
:10811000002101604160C0F81814C0F81414012156
:1081200080F81C140B4800F0F4F800280ED10A481F
:108130000A490B4B401AC108002004E000EB400242
:1081400023F82200401C8842F8D3002010BD000014
:10815000503B002038A40200E4AB02005CAB0200FC
:10816000B82B002002480349401AC008704700009D
:10817000E4AB02005CAB020013B56846FEF754F9AD
:1081800008B100201CBD0248009950F831001CBD08
:108190005CAB020070B508480125D0F8104480F8A7
:1081A0001C5405E065722168204649688847646868
:1081B000002CF7D170BD0000503B00202DE9FF4797
:1081C00081460C9D00200C462F7B2873984616464E
:1081D0002946184600F038FC072E42D2DFE806F0A8
:1081E00004090F161F2A360049462846FFF72CFBC4
:1081F00037E0494628462268FFF726FB31E0D4E9FC
:10820000002349462846FFF71FFB2AE0A06800909C
:10821000D4E9002349462846FFF716FB21E0D4E9BC
:108220000201CDE90001D4E9002349462846FFF7C1
:108230000BFB16E004F1080007C88DE80700D4E93D
:10824000002349462846FFF7FFFA0AE004F1080038
:108250000FC88DE80F00D4E9002349462846FFF7F0
:10826000F3FA00222946404600F0D0FB2F73BDE808
:10827000FF872DE9F041058A80462D1F4819C01C53
:10828000B0FBF5F0C6B24046FEF7B2FC041E19D0B2
:108290000020207101206071E58000272546761EB0
:1082A000C4F800800BE04046FEF7A2FC60B16179A3
:1082B000491C6171286005467F1CC0F80080B742E8
:1082C000F1D32046BDE8F081204600F002F80020FE
:1082D000F8E72DE9F041457901466B1E002201E0E7
:1082E0000968521C9A42FBD30F680146002605E03C
:1082F00038460C68FEF79EFC2146761CAE42F7D34A
:10830000BDE8F08108B501216A46001DFAF7B5FF06
:1083100008BDFEF7A7BC38B50446001D01216A461A
:10832000FAF7B8FF009810F0FF0F04D12046BDE81F
:108330003840FFF7CEBF38BD38B501240094FEF7B2
:1083400037F838BD38B500240094FEF731F838BD51
:10835000002802D101490120086070470050004008
:1083600008B5002101600068009008BDF1B59DF8D6
:1083700000000125194C03280AD119480068A1689A
:10838000084203D002208DF8000001E08DF8005073
:108390009DF80000012809D0022806D1607818B99C
:1083A0000E481030FEF71CFF6570F8BD0D4EB5602D
:1083B000FEF700FF002060704FF48860C6F80803E5
:1083C000A5606568002DF0D0E06801B0AC46BDE85E
:1083D000F04000231A46012160470000F42A0020E3
:1083E0003C540040005000404058002800D001207C
:1083F000704708B5002242504058009008BD000068
:10840000024A1060101D0160704700002C76004089
:1084100010B50A784B78302402F0030204EA031303
:108420001A438B784FF4E06404EA03231A43CB78B1
:108430004FF4805404EA03331A430B794FF4E024D9
:1084400004EA03431A434B794FF4801404EA0353BC
:108450001A438B79240104EA03631A430301054894
:108460001844C0F81825CA79097AC0F81415C0F85C
:10847000102510BD00700040030103481844C0F8E7
:108480001425C0F81015704700700040024940588C
:10849000002800D00120704700700040034908B553
:1084A0000844002202600068009008BD007000408F
:1084B00020B1034909680160002070470E20704711
:1084C000F0A30200FEB502460D460846FFF7F0FF96
:1084D000002838D1002400940194012603208DF84F
:1084E0000020ADF8040002948DF802606946202057
:1084F0002A6869DF00948DF800608DF801400194CE
:1085000002948DF80240694640202A6869DF009491
:10851000019402948DF80060694601202A6869DFA1
:108520004FF4B0600090019402946946A1202A683B
:1085300069DF0094019402948DF800406946A02000
:108540002A6869DF0020FEBD60DF704730B593B058
:108550005FF03804ADF8444011A903A861DF48B1C9
:10856000052818D013B00D4ABDE8304040F2211163
:10857000FBF758BE03AD0A49684600F0B5F806E0BF
:10858000D0E9002128469047684600F0C4F80298D8
:108590000028DFD0F4E713B030BD00007CA9020052
:1085A000F4A3020010B50D4C2078A0B10120A070FA
:1085B00000F0A4FB11280CD0022000F0B7FB11DF63
:1085C000002807D12070A07000F0C6FD032000F045
:1085D000ADFB002010BD082010BD0000142B0020B2
:1085E00038B5194C207808B1082038BD0125A57090
:1085F000002000F083FB112824D0002000F096FB1F
:108600001248134900680090684610DF0028ECD13A
:108610002570A07060700721162000F024FB18B1AF
:108620000C4AB821FBF7FEFD0721152000F01BFBCB
:1086300018B1084ABA21FBF7F5FD00F0ADFD0120A5
:1086400000F074FB002038BD142B002088A302002A
:10865000E540020038A902000EB50749684600F05F
:1086600043F805E0D0E900108847684600F053F869
:1086700002980028F6D10EBDA4A30200014800789C
:1086800070470000142B00200548817819B100784C
:1086900018B1FFF787BF08207047FFF7A1BF0000A0
:1086A000142B00201FB5684648DF40B1052816D0BE
:1086B00004B00B4ABDE810406B21FBF7B3BD09497C
:1086C00001A800F011F806E0D0E9002100989047D9
:1086D00001A800F020F803980028E4D0F4E71FBDBB
:1086E000C4A9020010A40200016009684160AFF350
:1086F000008010B5D0E900215368994201D10021D2
:1087000004E0D1E90034A34202D01946816010BDD3
:1087100008314160F0E7816800290BD00268926857
:108720000A44826041684B689A4203D10831416033
:10873000FFF7DFBF704700000C4A10B502F1F003ED
:108740000EE0991AC91001EBD171491002EBC10179
:108750000C68844201D90B4602E005D201F10802FF
:108760009A42EED3002010BD486810BDC4A102009B
:1087700000B5FFF7E1FF002800D1014800BD00006F
:10878000B0A102004058002800D00120704708B571
:10879000002242504058009008BD4058002800D0A8
:1087A0000120704708B5002242504058009008BD93
:1087B000D0F80403084000D001207047405800283A
:1087C00000D00120704708B5002242504058009068
:1087D00008BD000010B504460078002810D10948F3
:1087E0000321008801EB004007A1FFF719FC0D48A9
:1087F0008268002A04D0217BA068BDE810401047A1
:1088000010BD00006C2C00205265636569766564BC
:1088100020646174612066726F6D20424C45204E69
:1088200055530000942A0020002804D10248C06853
:10883000002800D000477047942A002000780028C4
:1088400009D105483B21808876DF002803D003A2A8
:10885000A921FBF7E7BC7047942A00207372635C80
:10886000626C7565746F6F74682E63002DE9FC414E
:108870008E88027900EBC605AC1D2A73C97B0129DD
:1088800002D0022904D101E0008800E04088208065
:10889000218860880127DFF8648081420CD9304646
:1088A0009EDF020025D0112A25D0B8F80000144917
:1088B00007EB0040FFF7B8FBA079E179884216D9B1
:1088C000002000900190287BADF80000287BADF8D7
:1088D000020000226946304690DF030007D0B8F856
:1088E0000000324607EB00400649FFF7A4FBBDE855
:1088F000FC816771E0E72771DEE70000242C00208F
:1089000008A80200D8A802007CB506468D88C88851
:1089100006EBC504A41D172800D217202188814228
:1089200000D8084660800020207121882846ADDFED
:10893000020007D00E480121008801EB00400D49DC
:10894000FFF772FB6079002810D1306900280DD044
:108950000948D0E90210CDE90010ADF80250608856
:10896000ADF8040032696946304690477CBD00008E
:10897000242C00204CA8020040A3020070B50C4635
:108980003C2900D93C24092829D2DFE800F0280539
:108990000A280F141E19230021461B4800F0A6FACE
:1089A0002CE02146184800F0C9FA27E02146164875
:1089B00000F004FB22E02146134800F027FB1DE0F5
:1089C0002146114800F042FB18E021460E4800F015
:1089D00063FB13E021460C4800F0CAFA0EE00020C9
:1089E0000146094A08E000BF00EB4005AB18401CF7
:1089F00059705155997080B2A042F5D32146BDE817
:108A000070400148FDF70CBA0C33002010B50C463D
:108A1000C17949B11AB109A12046FEF715FF2046D8
:108A2000BDE81040FEF71DBF007A0028F3D00448CF
:108A300004A102682046FEF707FFECE70D0A0000DC
:108A4000642B00202573000070B50446C0790D46E4
:108A500000281CD1207A50B1A179A088FFF7C6F96F
:108A60000B4951F820200BA12846FEF7EDFEA08807
:108A70000021FFF781FB03460549A079143951F81D
:108A800020202846BDE8704003A1FEF7DDBE70BD82
:108A9000642B0020257300003C25733E2025733A8B
:108AA000200000002DE9F041214C0025214E207AC4
:108AB000012730B92048311D0068FEF787F8306083
:108AC00038B1022020723168087928B101281ED1FE
:108AD00016E06560BDE8F081D1E90503C01A4FF4E6
