:020000040002F8
:10300000C85C0020153402001D3402001F34020089
:1030100021340200233402002534020000000000A5
:103020000000000000000000000000002734020043
:1030300029340200000000002B3402002D3402006D
:10304000293A02002F340200D53E0200FD3B020067
:103050002F3402001D38020005350200B53A020087
:103060002F340200AD3E0200C13E02002F340200A8
:103070002F3402002F3402002F3402002F340200BC
:103080002F340200913A02002F3402002F34020044
:103090000D3C02002F340200113C02002F340200CC
:1030A0002F3402002F3402002F3402002F3402008C
:1030B0002F3402002F340200000000000000000046
:1030C0002F340200813A02002F3402002F34020014
:1030D0002F340200453702002F34020000000000A8
:1030E00000000000000000000000000000000000E0
:1030F00000000000000000000000000000000000D0
:1031000000000000000000000000000000000000BF
:1031100000000000000000000000000000000000AF
:10312000000000000000000000000000000000009F
:10313000000000000000000000000000000000008F
:10314000000000000000000000000000000000007F
:10315000000000000000000000000000000000006F
:10316000000000000000000000000000000000005F
:10317000000000000000000000000000000000004F
:10318000000000000000000000000000000000003F
:10319000000000000000000000000000000000002F
:1031A000000000000000000000000000000000001F
:1031B000000000000000000000000000000000000F
:1031C00000000000000000000000000000000000FF
:1031D00000000000000000000000000000000000EF
:1031E00000000000000000000000000000000000DF
:1031F00000000000000000000000000000000000CF
:10320000DFF80CD000F04EF900480047C95A020020
:10321000C85C002030B4044654E8000F0D4644E872
:103220000053002BF8D1156030BC704730B4044611
:1032300054E8000F40EA010544E80053002BF7D1A1
:10324000156030BC704730B4044654E8000F00EA03
:10325000010544E80053002BF7D1156030BC7047DE
:1032600030B4044654E8000F80EA010544E80053F6
:10327000002BF7D1156030BC704730B4044654E8D9
:10328000000F00EB010544E80053002BF7D1156057
:1032900030BC704730B4044654E8000FA0EB010581
:1032A00044E80053002BF7D1156030BC7047000094
:1032B00030B450E8012F93B2C48923448489A342D7
:1032C00028BF1B1B0489A34202BFBFF32F8F00201E
:1032D00007E0C3EA020340E80134002CE9D14FF0D3
:1032E00001000A6030BC704750E8012FC2EA024278
:1032F00040E801210029F7D1704730B450E8022F8F
:103300001FFAA2F3C488A34202BFBFF32F8F00208D
:103310000DE0C48923448489A34228BF1B1BC2EA51
:10332000034340E80234002CE8D14FF001000A606A
:1033300030BC704750E8022FC2EA224240E8022126
:103340000029F7D17047034653E8022FD988B2EB22
:10335000324F4FF0000017BF92B241EA014142EAFA
:10336000014104E05A68B2EB324F08BF012043E844
:103370000212002AE8D1704730B4044654E8000F26
:103380000D4644E80053002BF8D1156030BC70475F
:1033900030B4044654E8000F40EA010544E8005305
:1033A000002BF7D1156030BC704730B4044654E8A8
:1033B000000F00EA010544E80053002BF7D1156027
:1033C00030BC704730B4044654E8000F80EA010571
:1033D00044E80053002BF7D1156030BC704730B47F
:1033E000044654E8000F00EB010544E80053002BAD
:1033F000F7D1156030BC704730B4044654E8000F74
:10340000A0EB010544E80053002BF7D1156030BC58
:10341000704700000648804706480047FEE7FEE781
:10342000FEE7FEE7FEE7FEE7FEE7FEE7FEE7FEE774
:10343000153C0200013202000649074A0868504361
:1034400043F239021044086040087047014908609F
:1034500070470000782B00206D4EC64140EA010302
:103460009B0703D009E008C9121F08C0042AFAD23A
:1034700003E011F8013B00F8013B521EF9D27047FE
:10348000D2B201E000F8012B491EFBD270470022A6
:10349000F6E710B513460A4604461946FFF7F0FF53
:1034A000204610BD064C074D06E0E06840F00103E1
:1034B00094E8070098471034AC42F6D3FFF7A4FE17
:1034C00084920200A492020030B58C1810F8012BEF
:1034D00012F00F0301D110F8013B120906D110F8C8
:1034E000012B03E010F8015B01F8015B5B1EF9D1D1
:1034F00001E001F8013B521EFBD1A142E6D30020BE
:1035000030BD00002DE9F04700268CB0DFF8609157
:10351000B0464FF48075012437460696284603F0DE
:10352000E7FD38B1D9F80403204203D0284603F060
:10353000D5FD26432D1D64007F1CADB2082FEDD3B1
:103540004FF4BE74204603F0D3FD48B1204603F08B
:10355000C5FD46F0004606AA0121002003F0AAFDA1
:10356000444D16F0FF0F15D00127002437420DD02F
:1035700009EB8401D1F81005D1F81015C0F304202F
:1035800055F82420C1F3014102B190477F00641C2B
:10359000082CEBD3002E67DA4FF0FF30CDE908801E
:1035A00000263446281910F8507F90F9000027F0C3
:1035B000C008401C44D009A9404602F0BDFF58B3E2
:1035C0004FEA9719404601F0FFFC55F820701FB1F3
:1035D000B9F1030F03D00FE0B9F1030F30D108A800
:1035E0004FEAD80208F00703815C4FF0010C0CFA97
:1035F00003FC41EA0C0181544FF0A04101EB88002B
:10360000D0F8000706A9C0F3014A404602F094FF33
:1036100018B1BAF1020F03D012E0BAF1030F0FD1C3
:10362000B9F1030F08D1BAF1020F1BD002214046B5
:1036300003F02FFD761CF6B217B149464046B84755
:10364000641C042CAED3002E0ED06A46012100204B
:1036500003F030FD06990098884205D0069008983E
:1036600009909DE70321E2E70CB0BDE8F087000078
:10367000006000409C330020F0B50C46054602FB7C
:1036800004F04FF47A7786B205FB07F04FF03C0C5C
:1036900090FBFCFE78009EFBF0F100FB11E0B0F522
:1036A0007A7000D54042C0F57A70704390FBF7F015
:1036B000B5FBFCF7C4F1640151438AB2002180B22A
:1036C000062F27D2DFE807F003080F14192066F34E
:1036D0000F0460F31F4403E060F30F0466F31F441C
:1036E00061F30F0516E061F30F0466F31F440FE06A
:1036F00061F30F0460F31F4403E060F30F0461F310
:103700001F4466F30F0505E066F30F0461F31F44E1
:1037100060F30F05A0B21044C0EB002142F210701C
:1037200091FBF0F1198002EB1441C1EB012191FBF7
:10373000F0F15980A9B21144C1EB012191FBF0F0E5
:103740009880F0BD2DE9F041324F00254FF48A7882
:103750002E464146384603F0D3FC2F4CA0B14146DB
:10376000384603F0D2FCE06870B1D7F840158142CA
:1037700003D1E18800EB810600E00646C7F840650A
:10378000607940F0040060714FF482784146384619
:1037900003F0B6FCB8B14146384603F0B6FCA06869
:1037A00088B1D7F83815814202D1E18800EB810059
:1037B000C7F83805617941F0020161710A0701D546
:1037C000CA0711D005466079C10711D0810709D514
:1037D000410707D520F006006071010710D520F0E1
:1037E00008006071BDE8F08121F008006071EAE72F
:1037F00055EA0600F6D0E28831462846236805E0FF
:10380000D7F84015D7F83805E2882368BDE8F041BD
:1038100018470000005002404C3C00202DE9F05FAA
:10382000624C0025D4F8040138B1D4F800038007B5
:1038300003D55F4803F000FE0225D4F8080160B10B
:10384000D4F80003400708D55948001D03F0F4FDE3
:103850000DB1032502E0012500E015B1284603F073
:10386000F1FDD4F81801534F534D012608B3D4F895
:10387000000340061DD551480068C0F3C800A0F100
:1038800002084B48143003F0D7FD3878302803D0B5
:10389000387850280BD00BE0D5F804C0BCF1000FED
:1038A00007D04346434A0221E868E04701E02E7012
:1038B000E661D4F810014FF01009D0B1D4F800033C
:1038C000C00616D53A480C3003F0B6FDC4F808938C
:1038D0003A4914390F60091DC1F80090E661D5F826
:1038E00004C0BCF1000F04D000231A460321E8688D
:1038F000E047D4F84C01DFF8C8B0DFF8C4A04FF0BF
:103900000D08ABF1080B38B3D4F80003000323D53E
:103910002748483003F090FD2548143003F08CFD13
:103920002348243003F088FD244814380760011D23
:10393000C1F80090E6614FF48860C4F80403CAF847
:103940000080CBF800800220A8606F6827B10023B8
:103950001A461946E868B847D4F8280160B1D4F887
:103960000003400508D5DAF8000057461048243017
:1039700003F062FDC7F80080D4F81C01002813D0C2
:10398000D4F8000300060FD5DBF800705C46084849
:10399000183003F051FDF80704D0287810B12660E4
:1039A00000202870C4F80080BDE8F09F005000405F
:1039B0000451004028340020F82A002024550040FB
:1039C0000C54004000F01F0201219140400980008A
:1039D00000F1E020C0F88012704700F01F020121C2
:1039E00091404009800000F1E020C0F800117047CC
:1039F00000F01F02012191404009800000F1E02009
:103A0000C0F8001270474907090E002806DA00F0D6
:103A10000F0000F1E02080F8141D704700F1E02055
:103A200080F80014704700002DE9F0414FF48077D2
:103A3000384602F049FE0124104EA50748B1384629
:103A400002F049FE0120C5F808037470002001F05F
:103A5000C3FA4FF48277384602F036FE00280BD0C6
:103A6000384602F038FE0220C5F80803B470BDE8FD
:103A7000F041012001F0B0BABDE8F08144340020EB
:103A80000149024801F0AABDF02A002000100240BE
:103A900007480021C0F84011C0F84411C0F848118F
:103AA000C0F84C11C0F80011C0F8041104F0C6BDF4
:103AB000001001402DE9FE434FF48278404603F0A8
:103AC00051FD4C4F00254C4C012600B3404603F0FD
:103AD00051FD94F82E0010B194F82F10D1B18DF84B
:103AE0000050616801912189ADF80810E26832B197
:103AF000218B618362602181E56010B102E0257451
:103B000000E03E6021686846884784F82F5094F8AA
:103B10002E0060B34FF48077384603F023FD30B3B6
:103B2000384603F027FD628B94F82D108A420AD99B
:103B3000A2EB010080B260832289A2EB00006268E0
:103B400002EB400005E007D1E06828B184F82F605F
:103B5000658303F0C1FC04E08A4202D184F82F603F
:103B60006583404603F006FD2248001D06604FF4C1
:103B70008877384603F0F6FC48B1384603F0FAFC83
:103B8000257402208DF800002168684688474FF4AC
:103B90008A77384603F0E6FC28B1384603F0EAFCA1
:103BA0002574BDE8FE834FF000484FF48C796769B7
:103BB0001DE000BFB7FA87F028FA00F109EB800595
:103BC0008F43284603F0CEFC88B1284603F0D2FC90
:103BD000A5F58C75E8088DF8040045F38000401CBD
:103BE0008DF800608DF80500216868468847002F31
:103BF000E0D1D6E700700040583400200149024867
:103C000001F05BBD003400200030004004F064BCD3
:103C100003F084BDF0B598480023021D0178012609
:103C2000101D4FF0805406290BD115782D0708D1AF
:103C30000578C5F30315032D06D0042D04D0052DFA
:103C400002D0062907D00EE0B4F824538B4FC5F3F9
:103C500004253D6002E015782D0704D10578C5F3F1
:103C60000315032D02D0062904D00FE0854F844DA3
:103C70007D670EE015782D0708D10578C5F303158B
:103C8000032D06D0042D04D0052D02D0062907D01F
:103C90000EE0D4F844527C4FC5F342353D6002E05B
:103CA00015782D0704D10578C5F30315032D02D02F
:103CB000062906D011E0754D2F6827F080772F6018
:103CC0000EE015782D0708D10578C5F30315032DEF
:103CD00006D0042D04D0052D02D006290AD011E00B
:103CE0004FF08045C5F80C31C5F81031664D2D1FD9
:103CF0002B6002E015782D0704D10578C5F3031574
:103D0000032D02D0062905D00CE05F4F0325643750
:103D10003D600AE015782D0704D10578C5F3031539
:103D2000032D02D006290DD014E0594F05253D6022
:103D3000574D78352E60564D08352B603F232D1F8B
:103D40002B6002E013781B0704D10378C3F303133D
:103D5000052B02D0062957D062E04E4B1B684E4D12
:103D60002B604C4B1B1D1B682D1D2B60494B0833D2
:103D70001B682D1D2B60474B0C331B682D1D2B60C2
:103D8000444B10331B682D1D2B60424B14331B68B2
:103D90002D1D2B603F4B18331B683F4D20352B608A
:103DA0003C4B1C331B682D1D2B603A4B20331B688A
:103DB0002D1D2B60374B24331B682D1D2B60354B7D
:103DC00028331B682D1D2B60324B2C331B682D1D97
:103DD0002B60304B30331B682F4D40352B602D4B03
:103DE00034331B682D1D2B602A4B38331B682D1D67
:103DF0002B60284B3C331B682D1D2B60254B40331B
:103E00001B682D1D2B6002E013781B0708D1037877
:103E1000C3F30313032B06D0042B04D0052B02D0CD
:103E2000062907D019E0D4F858121C4A01F04F01B6
:103E3000116002E0117809070FD10078C0F3031078
:103E4000032803D0042801D0052806D114480168AE
:103E5000C90702D06FF0010101600C487438016895
:103E600041F470010160BFF34F8FBFF36F8F0E49B4
:103E70000C480860F0BD0000E00F00F04035014044
:103E80000DF0ADBA00C007403C050040FCED00E07D
:103E9000105600400404001020C50040E40E00400D
:103EA000000400400090D003482B00200422024967
:103EB000024801F0E1BB0000843300200090004084
:103EC00004220249024801F0D7BB000090330020D1
:103ED00000A000400448017F04480029024901D0A5
:103EE00004F088BE04F0F7BD4C37002000200040ED
:103EF00002E008C8121F08C1002AFAD170477047B3
:103F0000002001E001C1121F002AFBD17047000010
:103F10000121202803DA81400548014003E04028C0
:103F200002DA2038814009B1012070470020704733
:103F3000FC06FFBD082806D228B1012803D00428BA
:103F400001D00120704700207047000003F0F0F915
:103F500003F0E2F80028FBD1104C0121208801EB8E
:103F600000400FA103F0D0F910480068C00700D04E
:103F700000BE2088022101EB00400DA103F0C4F92E
:103F8000BFF34F8F0948E43801680D4A01F4E0613E
:103F900011430160BFF34F8F00BFFDE7302C0020BD
:103FA000466174616C206572726F7200F0ED00E022
:103FB00053797374656D2072657365740000000039
:103FC0000400FA050EB500210091CDE901106A4602
:103FD00044F20100FFF7BAFF0EBD0000074B9B78CB
:103FE00023B12AB120B10068037C1BB108207047BF
:103FF000072070474174426100207047D834002088
:1040000070B503F07FFD104800240B21047044704C
:104010000E4D817014206C602C706C70FFF7D2FC18
:1040200007211420FFF7EFFC1420FFF7D6FC084807
:10403000046007211120FFF7E6FC0548001F006817
:10404000A860002070BD0000D83400201C2B002088
:10405000081501402DE9FC47DFF8789099F8023007
:1040600073B368B3052902D20720BDE8FC87436912
:1040700033B3437C012B25D0002704460025884616
:1040800016468DF80050684600F038F801A804F094
:10409000A1FEC8B1012101700F4944600968C0E95F
:1040A0000218C0E904769DF8040089F801009DF823
:1040B000000000F047F81420FFF79AFC2846D4E7E8
:1040C0000820D2E70F46D8E704259DF8000000F04D
:1040D00039F8F3E7D83400200415014006498978FF
:1040E00039B130B1416921B100210174022104F0DC
:1040F00081BA082070470000D834002030B5EFF3B3
:10410000108172B60D4A9468012324B1037000290E
:1041100000D162B630BD93604FF0E023D3F88051F8
:10412000074C25401560C3F88041D3F884415460A2
:104130005A17C3F8842100220270E8E7F433002004
:10414000FC06FFBD0B498A68002A11D000280FD158
:10415000EFF3108072B60B684FF0E022C2F8003126
:104160004B68C2F8043100228A60002800D162B690
:1041700070470000F43300200149032008707047A5
:10418000682A00202DE9FC4700251788064615807F
:1041900090F82D001446894630B13A4621464846EB
:1041A00000F03EFB050009D1B0784FF00C0A18B3BF
:1041B0002088C846001DB84202D95046BDE8FC8799
:1041C000684679DF0028F9D12088032108F800101B
:1041D00020881921401C80B2208008F80010208817
:1041E000401C80B2208000EB0801BDF8000004F004
:1041F00079FD218808442080F0780222C8B1218806
:1042000096F9033001F1030C4846BC45D5D8425419
:1042100021884FF0010C491C89B2218000F801C0AF
:104220002188491C89B2218009F801302088401C6E
:1042300020807068B8B1218890F9003001F1030C3A
:104240004846BC45B9D8425421880A22491C89B243
:10425000218042542188491C89B2218009F801300B
:104260002088401C2080308950B1CDE900474B4662
:104270000622022106F1080004F0C4FD05009DD1CC
:10428000308A50B1CDE900474B460722032106F1A1
:10429000100004F0B7FD050090D1308B50B1CDE98E
:1042A00000474B461522142106F1180004F0AAFD20
:1042B000050083D1306A30B13B462246494600F0C2
:1042C00033FF0500DBD1706A30B13B4622464946D8
:1042D00001F09AFC0500D2D196F82C0038B13B468B
:1042E00022464946304603F08BFD0500C7D13078A1
:1042F00038B13B4622464946304601F03EFD0500B6
:10430000BDD128465AE7F0B50C4693B01F210726C9
:10431000ADF80010ADF80410002750B1C17849077E
:104320000DD56A4602A9FFF72DFF002808D102AD7E
:1043300002E00025ADF800706CB1E07810B13046B5
:1043400013B0F0BD01AA0AA92046FFF71BFF002801
:10435000F6D10AAA02E00022ADF80470BDF804000C
:10436000C3B2BDF80000C1B2284672DFE8E780F8AA
:104370002410704770B50D00044653D0F4B30120EB
:1043800020700026E670202205F17801201DFFF73D
:1043900065F884F82460D5F89800C4F8CC00D5F806
:1043A0009C00C4F8D0004FF6FF70A4F8C800C4F811
:1043B0002560A4F8296084F82B6004F130003C21CA
:1043C0000646FFF764F8287884F83000A87884F867
:1043D0003200E87884F83300687884F83100D5E951
:1043E0000401C4E91001D5E90201C4E90E01D5E9CF
:1043F0000601C4E9120195F82D0000E012E084F8EE
:104400005D00686AD8B104F1780104F16C0061675D
:104410006065696A09880180686A616D8088888042
:10442000002008E00E2070BD696A22188968095CC6
:1044300082F87810401C616D89888142F4D8A86A9E
:10444000E8B104F1A400C4F8A0000C38A065A96A82
:1044500089888180A86AA16D00880880002006E014
:10446000A96A22188968095C82F8A410401CA16D11
:1044700089888142F4D895F82C0084F85C00286A79
:1044800048B104F1C4002065296A49884180286A3E
:10449000216D00880880686800B1606305F13C0107
:1044A0003046BDE87040FFF72EBF10B50288102AD5
:1044B0001AD0112A1FD01B2A1CD1007A0C460028C2
:1044C00018D1E0780521401CB0FBF1F201FB12018C
:1044D000204600F037F800280CD0D4F8D01000297E
:1044E00008D0BDE810400847C27B012A02D180886D
:1044F000A1F8C80010BD0C46002184F8D4108088B3
:10450000B4F8C8108842F5D120790028F2D10121F1
:10451000DEE710B50C46022801D0032811D16078DF
:1045200000280ED000206070E178204600F00AF8E4
:10453000002806D0D4F8D010002902D0BDE81040E1
:10454000084710BD2DE9FF47044600780F4638B1F3
:10455000E770002002F0BEFC012628B16670D2E0B0
:10456000082004B0BDE8F0870025C4F82550A4F861
:10457000295084F82B50A07910B1E078012806D09A
:10458000E07970B1E078012801D0022809D1D4F88F
:10459000CC1021B184F82C600820884701E084F811
:1045A0002C5004F1260100200A5C0AB1304603E0D9
:1045B000401C0628F8D300204FF002084FF0030AF1
:1045C0004FF00409012F06D0022F09D0032F0CD081
:1045D000042F12D10DE0A17911B108B130460DE0E0
:1045E000E17911B108B1404608E0207A08B150469F
:1045F00004E0607A08B1484600E02846E070D4F84C
:10460000CC1041B1032801D0042804D1607910B145
:1046100094F8D400A8B184F8D5500095029501957E
:1046200003958DF800508DF80850E17804F12500CD
:1046300004F13002052958D2DFE801F0670A131FA0
:104640003B0084F8D65084F8D56007208847E4E71B
:10465000A67001908DF80060ADF80C50ADF80A50CE
:1046600043E084F8028001908DF80060208AADF864
:104670000C00A089ADF80A0037E0A08AADF80A0066
:10468000208BADF80C00607980B194F8D40068B943
:1046900094F8D60050B18DF8088084F8339000214A
:1046A0001046FFF730FE00BB05211AE084F802A097
:1046B0001BE0A08BADF80A00208CADF80C006079EF
:1046C00088B194F8D40070B994F8D60058B18DF838
:1046D000088084F8339000211046FFF714FE20B9BB
:1046E0000621A17001E084F80290E07830B194F8DE
:1046F0002410684673DF00287FF433AFD4F8CC1061
:1047000009B1A078884700202BE7A570F6E70000E4
:1047100070B5040012D001461C221448FEF79EFE1C
:104720001248134D0560206850B17ADF002806D189
:104730002068016829604068686005E00E2070BD4F
:104740000B487BDF0028FAD108484FF6FF71143878
:10475000084A20F8041B0549343901600021FFF79D
:104760003DFC0028EBD0032070BD0000BC340020CD
:10477000102B00206D8D020010B5094C10B10220E5
:10478000207010BD0120207060780128F9D101F05F
:10479000A7FA00206070BDE81040024803F01ABD7F
:1047A000682A00203182020070B500290BD01A4C13
:1047B000027800256178052A05D2DFE802F00305BA
:1047C000080D2000256170BD4078A07070BD0129E2
:1047D000FCD14078E070F5E74078012807D001F07F
:1047E0007FFA6570BDE870400C4803F0F3BC03F03D
:1047F0000DFD01206070BDE8704001F037BA01295D
:10480000E4D1E57041788278C078090441EA022158
:104810000143216170BD0000682A0020318202003E
:104820007CB5054608880C460930904201D90C2019
:104830007CBD68466DDF0028FAD1218808206854C5
:1048400020881B21401C80B2208029542088401CD5
:1048500080B220802844DDF801100160BDF8051009
:1048600081802088801D80B220809DF8001049083A
:1048700000D0012129542088401C208000207CBDCC
:1048800070B5684C05460088A68894B023287CD073
:104890005ADC21461128096962D009DC012869D057
:1048A000102864D1A888A080002960D001205DE094
:1048B000132860D01D285AD1302205F1080168461E
:1048C000FEF7CCFD6269002A51D09DF80F0015213A
:1048D000B1EBD00F4BD19DF81D00012847D19DF8B9
:1048E0001900C02843D19DF81A00B8283FD19DF87F
:1048F0001B0089283BD19DF81C00B62837D14949B7
:104900009DF80130183100200D78AB4247D19DF859
:1049100002304D78AB4242D19DF803308D78AB42E6
:104920003DD19DF80430CD78AB4238D19DF80530AB
:104930000D79AB4233D19DF8063049798B422ED1A7
:104940000120322121702CE03B2844D051284AD04C
:1049500052283AD056280AD1A888132176DF1BE0C6
:104960004FF6FF70A080002901D00020884714B0C6
:1049700070BD0AE033E000231A46852130467FDF10
:104980000AE000BFFFF71EFBF1E700200C900D903E
:10499000A88800220CA990DF0028F3D1E7E721784E
:1049A00039B1C9B2491E11F0FF01217001D00028B0
:1049B000DDD0DDF81F109DF8223009BA21F0FF018B
:1049C0009DF81E0019439047D1E700231A46194667
:1049D0003046A9DFE0E7A888132176DFDCE7A88866
:1049E000002166DFD8E71022A91D10A8FEF736FDCA
:1049F0009DF840000028BAD09DF84810042903D043
:104A0000062901D00529B2D1022800D001208DF855
:104A100030004FF4C170ADF83400A8880CA9A8DFAD
:104A2000BAE700008C2A00202DE9F04701883B4EB0
:104A300040F2F3194FF6FF7510291BD011293ED013
:104A4000122954D0502946D1C188F289841D91423F
:104A500041D1618902293ED18688304600F0B4FDFB
:104A6000050038D004F10C0000F07EF9A8B3294607
:104A700030464EE0C17B8788044601292BD1A846E9
:104A8000284600F0A1FD050017D02F8000202872D5
:104A9000234843464A460168C5F80A104068C5F8ED
:104AA0000E0004F1100105F10A0000F061FE6872C9
:104AB000F08900280FD129462AE0042013E08088DD
:104AC00000F082FD040006D06068FFF707FB08B124
:104AD00003F08EF92580BDE8F087FFE76868FFF7EF
:104AE000FDFA0028F7D0BDE8F04703F081B98788C8
:104AF0000646384600F068FD0400ECD02B464A46D6
:104B000006F1080104F10A0000F032FE607221464D
:104B10003846BDE8F04700F04DBB0000BC34002033
:104B2000102B00202DE9F047044603883F4801225E
:104B3000A4B000F1480A102B09D0112B54D01A2B25
:104B400070D1217AB2EB111F53D2012352E0D0E988
:104B500011218A430546011D12A803F01CF94422C5
:104B600012A901A8FEF77AFCDFF8C09000263746AC
:104B700009F144090DF104080AE000BF08EB460002
:104B80001D2283884946281D009703F0C9F8761C2A
:104B90000198B042F2D8686CA688C04303F0E2F8EE
:104BA000A0F57F41FF3917D005EB40000123868037
:104BB00032465146281D03F013F901233246494677
:104BC000281D03F00DF9E07B02280BD000231749C4
:104BD000A2884C31281D20E024B00420BDE8F04715
:104BE000FFF7F0B90123F2E70023A2885146001D28
:104BF00013E000230D490546A2885031001D03F043
:104C0000EFF8207A0221B1EB101F01D2012300E05E
:104C100000230649A2885431281D24B0BDE8F0477E
:104C200003F0DEB824B0BDE8F0870000E4350020D2
:104C300030B5174B0D4604000FCB85B08DE80F0043
:104C400023D015B34FF6FF70A0822868A061002022
:104C5000A0752146684662DF002814D120788DF8BF
:104C600012000120ADF81000A21C04A9A0DF00284A
:104C700009D12946204602F07CFF002803D12946AD
:104C8000204603F098FE05B030BD0E20FBE7000083
:104C9000D88F02007FB5002917D0002815D00288D0
:104CA000102A0DD0112A0DD0502A0FD0572A0CD11E
:104CB0001A4B1868D3E902238DE80F0089692AE0AE
:104CC000808801E04FF6FF7088827FBD01910C461D
:104CD000821DC3880989002512308B4202D1518977
:104CE00002290CD0A1898B42EFD1A1690029ECD017
:104CF00002905089ADF80C008DF800500AE000F0E9
:104D000033F818B10120A075022001E0A575032039
:104D10008DF80000A169684688477FBDC88F0200F2
:104D20001FB560B1838AA3F57F44FF3C09D0837D22
:104D30003BB11388142B06D9072004B010BD0E20F8
:104D4000FBE70820F9E70023009301930293039304
:104D50008388CDE90221ADF8003001218DF80210E1
:104D6000808A6946A6DFE8E7007800F00100704716
:104D700010B502F07FFC002803D0BDE81040FFF71B
:104D800021B910BD10B5464BA8B083E80700FFF766
:104D900037F908B1FFF716F902F08AFC08B1FFF7FE
:104DA00011F9002469460120009402F0F7FB08B1D4
:104DB000FFF708F9684602F033FC08B1FFF702F983
:104DC0009DF8080037A120F00F00401C20F0F000F3
:104DD00010308DF808000A2202A87CDF08B1FFF726
:104DE000F1F800941020ADF800003C200194ADF8DB
:104DF0000200ADF804404FF4C870ADF806006846F4
:104E00007ADF08B1FFF7DEF800F042FA2848009098
:104E100069462848FFF70CFF08B1FFF7D3F8A02137
:104E20006846FEF734FB02208DF800008DF8024042
:104E300004208DF8030001208DF87C005020229082
:104E4000B42023901C4826901A4869463030FFF75A
:104E500091FA08B1FFF7B6F8164801213030FFF794
:104E600086FA1C216846FEF712FB4FF42030CDE98C
:104E700000404FF47020029003208DF80C000F4882
:104E800005900F480690ADF80E408DF8104068462A
:104E9000FFF73EFC002801D0FFF794F828B010BDC2
:104EA000942A0020467261636B73746F636B000019
:104EB00041780200983000205D780200717802008D
:104EC000B151020013B5014601AA0248FFF728FFBD
:104ED0001CBD00009830002010B503210448FFF7E6
:104EE00031FB002803D0BDE81040FFF76BB810BDC0
:104EF000C830002003490248C1F80007704700008D
:104F00000C0003007C000050F8B5871C00208DF8D1
:104F100000000E4601256846FFF7F0F8124C2068A5
:104F20003060D4E90001401AA168091ABE1C06E0ED
:104F300000F080FDD4E90001401AA168091A491C5B
:104F40008E42F5D8A1682068084004EB8000C16853
:104F500041F00301C1602068384420609DF80000E2
:104F6000FFF7F0F82846F8BD2C380020034803C8A6
:104F7000814201D101207047002070472C38002069
:104F8000F0B502004FF0883019D0FF2A18D0002168
:104F900001250F265FF00E0705FA01F4144208D030
:104FA0004FEA810C06FA0CF3DC4307FA0CF32040BD
:104FB0001843491CC9B20829EED34FEA3040F0BD6E
:104FC0004FF0EE30F0BD00000249084490F9300087
:104FD000704700009C33002070B5084C050009D0D4
:104FE00010342168002907D00868206049682846E5
:104FF0008847F6E70834F4E770BD00004434002029
:105000002DE9F05F26484168F1B3DFF898B00E68EB
:105010008146DBF8004087688078E11B21F07F45FE
:10502000ED1CB0B9DFF880804FF48030C8F844033D
:10503000C8F804031120FEF7C5FC1120FEF7CDFCD3
:105040004FF0010AC8F800A02F2001F033FC89F8C6
:1050500002A0B54200D23546124BE8193C3320F08D
:105060007F401860DBF800105A46091B21F07F4191
:10507000001B20F07F40C91C81420FD910681860C6
:105080002F2001F017FC00E004E0BDE8F05F1120E4
:10509000FEF7AEBCBDE8F05F02F034BDBDE8F09FA6
:1050A0001C2B002004150140001001402DE9F041A7
:1050B00007468179007879B1002101F0D7FF78782F
:1050C000002101F0D3FFBE784FF0FF34FF2E09D04E
:1050D000304601F0D4FF06E001F0D1FF787801F00E
:1050E000CEFFF0E72646FD78FF2D03D0284601F0DD
:1050F000C6FF00E025463879FF2803D0044600218A
:1051000001F0B4FF074839787A78C0F86415C0F820
:105110006825C0F86065C0F87055C0F86C45BDE8FA
:10512000F0810000005002402DE9F041178806464A
:10513000B81D14460D46984202D90C20BDE8F081F6
:105140003188072206290AD34FF4486C4FF6FF73C3
:10515000614501D9994202D17088062801D21046D2
:10516000ECE7604501D99842F9D1994203D09842C1
:1051700001D08142F3D80520E85520881221401C37
:1051800080B2208029542088401C80B220804119A0
:10519000308803F0A7FD2188084480B2208041199F
:1051A000708803F09FFD2188084420800020C5E717
:1051B000FEF708BF38B54A7A0F4B62B100220A7277
:1051C0005969002906D001228DF80020ADF80200AF
:1051D0006846884738BD0A7A62B19B684C680246C7
:1051E00019462046FEF736FF0028F3D0BDE83840C8
:1051F00002F0FEBD5B68F1E7BC34002070470000A0
:105200000E4910B50A784C780023A24212D0521CE5
:10521000D2B20A70022A00D10B70084A0B780C3205
:1052200052F8232002608868104420F07F40886094
:10523000012010BD0360002010BD00001C2B0020C9
:1052400030B50446006885B00D46806800281CD043
:1052500014216846FEF71BF90195A0680490207997
:1052600010B101280DD104E001208DF80000206963
:1052700004E002208DF80000E068000302906069FD
:105280000390206881686846884705B030BD704744
:1052900010B50949094801F061F908B1FEF792FE1D
:1052A0001721064801F050F9002803D0BDE810404E
:1052B000FEF788BE10BD00008F520200B4300020FF
:1052C00010B500F0A1FA02F0A1FFFFF751FDFFF7C2
:1052D00011FEC82001F016FABDE8104000F0E0BE53
:1052E00070B5254CA0421ED1F1B1012936D002295A
:1052F00028D0032917D1072000F0BCFD002812D1C7
:1053000094F8680094F8691088420CD194F86A0007
:10531000002808D10023D4E901501A460321A847E8
:10532000012084F86A0070BD052000F0A3FD00286C
:10533000F9D1A06864680023A446BDE870401A460D
:105340000121604710461900EDD00028EBD002780B
:10535000302AE8D1BDE8704000F0ACBD082000F074
:1053600089FD28B9A068002364681A460221A04775
:10537000BDE8704000F038BE5C3C0020FEB522481D
:1053800087780A2F23D0214A0324072F16785578CF
:105390009378D1788DF800608DF8015086EA050089
:1053A0008DF802301AD04B4058408DF803108DF81C
:1053B0000400FF2204210DF10500FEF761F800BF93
:1053C0008DF809400A21684600F0D2FFFEBD03B007
:1053D0000A21BDE8F0400D4800F0CABF83F0880301
:1053E00058408DF803008DF8041013798DF80530BE
:1053F00050798DF8060092795940504041408DF81F
:1054000007208DF80810DBE7F82A00203834002048
:105410000C4810B50268001D0168001D03680A48A9
:10542000140A02704470120C8270C1700A0A027170
:105430000A0C4271090E8171C371190A0172190CAB
:10544000417210BD50040010383400201B491A4826
:10545000897804292BD007292BD010F8011B10F8CC
:10546000012B090441EA022110F8012B1143144ACF
:105470001160022110F8012B10F8013B120442EADE
:10548000032210F8013B1A430D4B1B1F1A600268E0
:10549000C07812BA22F0FF020243094808380260BD
:1054A000042000EB81100649083108607047002194
:1054B000EDE70121DEE7000038340020F82A002063
:1054C0009855004070B50C00054613D00A4801F00D
:1054D000B3FF0A480560094940F6FF700C3100EA45
:1054E000C400086006481021C0F804130121C160FF
:1054F000002070BD0C2070BD1051004010550040C0
:1055000000500040114A10B5D1605060907818B931
:1055100007209070FFF77CFF0D480621C0F80413A8
:105520000C49C0F80413FFF791FFFFF727FF074866
:105530000949103041600021016001F04DFA18B1B5
:10554000852801D0032010BD002010BDF82A0020BE
:1055500000500040800008002974020009490D2015
:1055600008600949012088604FF0E0212020C1F83F
:105570008002E0224B1D83F80024C1F800010020C6
:1055800070470000045400400050004002490120D0
:1055900048600020704700000050004010B502F045
:1055A000CFF808B140DF10BD054901200860012097
:1055B00001F09AF80028FAD10249487010BD0000A5
:1055C00004000040443400200146034802888A4217
:1055D00000D0002070470000A834002070B50C46B1
:1055E0004FF488760546314601F06AFF50B13146E6
:1055F000284601F06AFF6079400703D5216809B1A8
:10560000012088474FF48A763146284601F058FF3A
:1056100050B13146284601F058FF6079000703D5A4
:10562000216809B1022088474FF48E76314628461A
:1056300001F046FF50B13146284601F046FF60793F
:10564000C00603D4216809B1002088474FF4827650
:105650003146284601F034FF00280CD03146284658
:1056600001F033FF012020712168002903D0BDE83B
:1056700070400320084770BD2DE9F8430025164609
:10568000884604462F4614E04FF4A07000EB8500D6
:105690004FF480312258A9404AB1D4F804230A4279
:1056A00005D0275021580091D8E9002190476D1C62
:1056B000EDB2B542E8D3BDE8F8837FB50C460546A8
:1056C00091F8211094F82000CDE9000104F12602A0
:1056D000D11E2846E36903F071F8002823D194F81D
:1056E000230008BB207B022801D003281CD122699B
:1056F000E169914218D16269E261E37B84F820306C
:10570000217E0328C1F3401184F8211006D004B093
:1057100029462046BDE8704002F0D9BF00912946D5
:10572000204603F0D0F87FBD04F10C0001AB07C8A0
:1057300083E8070094F82300002168B1D5F8C40479
:10574000C5F8C404820701D5012002E0400705D551
:1057500002208DF8000001E08DF8001084F824107C
:10576000207E4007DFD4D4E90021684690477FBD02
:10577000F0B58488A518944200D82246A41AC2889D
:10578000D6189A4200D81346D21A4B880788BB42D3
:105790000CD34088834209D88888A04206D3A84207
:1057A00004D8C888904201D3B04201D90020F0BD8E
:1057B0000120F0BD0268134602E08A4204D012685C
:1057C000002AFAD10B6001607047000070B54FF0FD
:1057D000A04101251020C1F808054FF47A7000F0AF
:1057E000DDFF074C2078002809D10023D422054989
:1057F000184601F09BF908B1FEF7E4FB257070BD77
:10580000802A0020482C002010B501F0F7F9044947
:10581000002008704FF0A0411020C1F80C0510BD09
:10582000802A002010B588B00024012204200094B2
:1058300023461146019401F0E3FB4FF0A0411020F4
:10584000C1F80C050320CDE9000401220023114614
:105850000D2001F0D5FB1422114902A8FDF7FEFD31
:105860001D208DF808000D208DF80B004FF0C05062
:1058700005908DF80C408DF818408DF812400949BC
:1058800002A801F0FFF808B1FEF79CFB06490020D2
:1058900041F82040401C80B2D428F9D308B010BD94
:1058A000E88E0200FD510200482C00202DE9F04353
:1058B0000E4607463C2902D93C26002401E000247C
:1058C00018E004EB4405785DFFF75AFBDFF82C90F5
:1058D00005EB070849F8250098F80100FFF750FB91
:1058E00009EB8505686098F80200FFF749FB641C26
:1058F000A4B2A860B442E4D3BDE8F083482C0020F1
:1059000006490120086006480168C1F300410029EA
:10591000FAD1044900208870704700000C00004054
:1059200018040040443400201721018041800021E8
:10593000017141711B218171C17170472DE9F047DF
:10594000394E002780463D46DFF8E090D6F804A0A7
:1059500057E003D00446D0F81C8035E099F80020C9
:1059600002EB4201521CD2B289F8002009EBC101BE
:1059700099F80230091D9A4201D189F8005048680F
:105980000A780446012A12D0022A02D0032A3BD107
:1059900008E002F0FFFD00B10127257434E0057432
:1059A000C06900E070680028F9D170602CE0207CAC
:1059B00050BB88686060C868A0600869E06048699A
:1059C000A061F07800B165606268B168184B501A48
:1059D00020F07F40984202D2A168084406E0881A6D
:1059E000A16820F07F40814202D9081A206000E0BF
:1059F000256065600120A56020742046E56102F005
:105A0000ABFDB8F10000A4D199F8001099F801009D
:105A10008142A3D117B97168514502D00120BDE878
:105A2000F0870020FBE700001C2B0020D83400206A
:105A3000FFFF7F0070B588B0214800F03CFD204892
:105A4000001F064600F037FD1E4DD5E9014105E077
:105A5000C0F3891202EB9050641C044404EA010074
:105A600005EB8000C0688207F2D000200DF108022B
:105A700004EA010305EB8303641CDB6842F8203071
:105A8000401C0228F4D3029800F00300012808D03B
:105A900002280AD10298032101EB905004EB9004F4
:105AA00003E00298C0F3831004443046002101AAA9
:105AB000FDF77BFC002800D06C6008B070BD0000D2
:105AC000443C00202C3800200EB5464800F000FB76
:105AD000FFF7A8FE02F086FC434A44494448FFF71A
:105AE00051F9FFF7F9F9434C012020700A2000F02A
:105AF00009FE02F0C1FC404802F06CFB002060701F
:105B0000642542F2107600BF01F006FB012000F090
:105B1000F9FDE088401C80B2B0FBF5F105FB1100F7
:105B2000E0802189491C89B2B1FBF6F206FB121113
:105B3000218150BB02F024FC606102F013FCA081C3
:105B40002178022921D12DA20ECA8DE80E00217DD7
:105B50008DF8011061788DF80210E1788DF803104E
:105B600021690A0E8DF804200A0C8DF805200A0A16
:105B70008DF806208DF80710010A8DF808108DF8B1
:105B800009000A216846FFF79DF920890028BBD14A
:105B900002F01EFC607158B1164AA178143201203F
:105BA00001F0FCFEFFF712FE322000F0ABFD02E038
:105BB0006069052802D8FFF727FE01E0FFF706FE1F
:105BC00060780028A0D1207803289DD16079002832
:105BD0009AD16089401E0004000C608194D1FFF7C7
:105BE0006FFB91E7296302007947020079410200C7
:105BF000A9470200682A002031820200010000004B
:105C0000000000000000000070B5144682880E46B7
:105C100005462088111D0144921C994201D8FE2A94
:105C200001D90C2070BD521C32542088FF21401C29
:105C300080B2208031542088401C80B2208081199D
:105C4000288803F04FF82188084480B22080AA8871
:105C500042B1A96841B13044FDF700FC2088A98811
:105C600008442080002070BD072070BD70B51A4D1B
:105C7000A87800282ED1194E59203C21308005F1FA
:105C80002600B0600E20B080A6F13C00FDF7FFFBBF
:105C9000A6F13C00002404706978C1702146466278
:105CA000FEF731FB08B1FEF78DF90C48032154389B
:105CB0008460C460046144610830017004724FF470
:105CC000A07141818481022173DF08B1FEF77AF966
:105CD0000120A87070BD00008C2A0020EC3100204B
:105CE00030B4074CA078002807D074DF0021A170E1
:105CF000002802D030BCFEF765B930BC7047000008
:105D00008C2A00202DE9F047C7880446181D164646
:105D10008946B0FBF7F1B0FBF7F207FB12009A19C6
:105D20003A44D21CB2FBF7F2DDF820A001E024686F
:105D3000491E0029FBD13D1A8846B54216D818E005
:105D4000BAF1000F05D0211809EB08002A46091DF9
:105D500004E0204409EB08012A46001DFDF77EFB04
:105D600000202468761BA844B74201D9354600E0DC
:105D70003D46002EE4D1BDE8F087F8B50E46017827
:105D800014460546012901D1687830B12088821C6B
:105D90009A422DD8012902D006E00720F8BD697883
:105DA0000144891C994223D8181A801E87B2ADF885
:105DB00000702188B01C084469467DDF0028EDD1C1
:105DC0002878022805D1BDF80010B94201D8092170
:105DD0000AE00821012805D16878B84202D8ADF858
:105DE000000001E0ADF80070BDF80000FE2801D908
:105DF0000C20F8BD2288401CB0542088401C80B282
:105E0000208031542088401C2080BDF800100844B8
:105E100020800020F8BD10B51C46934200D91446DE
:105E20002246FDF71BFB204610BD10B51C469342D1
:105E300000D914460A462146FDF722FB204610BD34
:105E40000B4900F1100213464A610A6913448B6141
:105E500028B14FF47C73CB614FF4806301E00023E1
:105E6000CB61C01C104480080B6281F86900704748
:105E70005C3C002070B50D4D0D4A00212C7800BF10
:105E800001EB4103D65CA6420AD113445B788342FE
:105E900006D101EB4100104480782870002070BDCD
:105EA000491C0E29ECD3082070BD00005C3C00208A
:105EB0004C2B002070B50446022920D10620FFF7A4
:105EC000D9FF00281BD10E4964784B69A2002046F7
:105ED000934208D88D69103D954204D3C968C3EB3D
:105EE0008400084403E000F017F80548383010211A
:105EF000FFF7E8FA2046BDE8704000F099B870BDA1
:105F00005C3C0020034902684A6242688A62008958
:105F1000888570475C3C00202DE9F041264F8400C5
:105F2000102529463846FDF7B2FAA7F13806706900
:105F3000A0420BD9021B31192B4638462431FFF7FA
:105F40006AFFD0F110050444074432D0B069A04282
:105F50000CD970693169201A0A1AF1682B4601447C
:105F60003846FFF758FF2D1A04440744002D20D06F
:105F7000F069A04209D9021B2B4600213846FFF7E1
:105F800054FF2D1A0444074413D0306AA04208D9A4
:105F9000021B2B46FF213846FFF747FF2D1A074407
:105FA00007D02B463846BDE8F0411A460021FFF7DE
:105FB0003CBFBDE8F0810000943C002070B50C4669
:105FC0000546914201D90C2070BD0120FFF752FF18
:105FD00008B1082070BD05B900240248C0E9035487
:105FE000002070BD5C3C002070B5002103230A46F0
:105FF0000C460E4801260CE006FA03F50D43E9B203
:106000005B1E05D5831883F8481007230021521C16
:10601000641C90F86950A542EEDC024482F84810F6
:10602000002100F8681F817070BD00005C3C0020FA
:10603000F0B5C208514200EBC1010024124BC1F17E
:1060400007010125042813D305FA01F603EB020C1E
:10605000F7B29CF848603E4204D0BE438CF84860DA
:106060002E4600E0002693F868703E4483F868608E
:10607000491E01D50721521C401C10F0FF0002D020
:10608000641C042CDEDBF0BD5C3C0020012904D143
:1060900002484068002800D000477047842A00204A
:1060A00010B500F058F90749086008B1FDF78AFFFC
:1060B0000548012484604CF2503000F0B5FB0348E1
:1060C000046010BD842A00200050004000050040FC
:1060D0000EB5154948601549012048604FF47A70A3
:1060E00000F0A2FB0021124800F070F94FF480701C
:1060F000029002A90F48CDE9000100231A461C2195
:106100000D4800F01BF808B1FDF75CFF0948029943
:1061100000F03CF908B1FDF755FF00F011F9002837
:1061200001D0FDF74FFF0EBD842A00200050004033
:106130008D600200982F0020FC8E02002DE9F041B6
:106140000446204898B015460F46DDE91E86D0E982
:106150000112CDE9011216A90091D0E9031280695C
:10616000CDE90550CDE9031216498DF818301822F3
:106170001C3109A8FDF772F903A80E901149CDE969
:106180000747182234310FA8FDF768F907A81490C3
:106190002DB109A9684600F063F800280DD12CB193
:1061A0000FA9684600F05CF8002806D1029838B1C3
:1061B00032464146684600F01AF818B0BDE8F08152
:1061C0000720FAE7608F020070B515460B00044601
:1061D00009D028686268904201D2042070BD184638
:1061E0002168FDF73BF960682860002070BD2DE94B
:1061F000F8439046894607004FF0000606D0B8F1F4
:10620000000F03D03D680DB1002422E00E20BDE850
:10621000F88324B1611C884207D1402106E001289F
:1062200001D0802102E0C02100E00021D8F8000068
:106230006B46801B00904A46286800F01FF8002833
:10624000E5D10098B9F1000F064400D08144641CE8
:106250002D1DB868A042DCD80020C8F80060D6E741
:10626000D0E901329A4201D304207047036843F811
:1062700022108168491C8160002070472DE9F84395
:10628000144698460A4605004FF000074AD0687841
:10629000297A4618B61D00B1761C8CB332F0C000C6
:1062A00002D00720BDE8F883D8F80000B04201D240
:1062B0000420F7E722702B78601C1A4322702A7A98
:1062C00000F8012B21460746041D687828B104F820
:1062D000010B087840F0080008702A7A2046E96827
:1062E000FDF7BCF8287A6A7804442AB12046696828
:1062F000FDF7B4F868780444D8F80000801B0090DB
:106300002B697BB16A462146686998470028C9D144
:1063100014B1009800BA3860009831180020C8F80D
:106320000010BFE70E20BDE710B5044C207803280D
:1063300003D1FEF7D1FD0120207010BD682A002096
:1063400010B50420FFF796FD08B1082010BDBDE888
:106350001040FFF703B910B5FFF718F904460920FC
:10636000FFF788FD08B1082010BD204610BD0000D1
:1063700010B518B10A2902D00C2010BD0248FFF751
:10638000C1FD002010BD0000C490020010B54FF404
:106390007772FFF713FE040013D10B480322016943
:1063A00000F8342FFE2902D84170022005E0FF22B8
:1063B00042700A0A8270C1700420FFF741FDFFF7A6
:1063C00013FE204610BD00005C3C002070B50E4658
:1063D000050005D00020FFF74DFD18B1082070BD65
:1063E000072070BD0B4C0C48C4E901561434FFF76C
:1063F00089FDFF20A076E076E120207711206077EC
:106400007C20A0770F20E077BDE870400149034869
:10641000FFF778B85C3C0020C4900200E152020013
:106420002DE9F047164604460279007B1518ED1D4C
:1064300041B33068A84202D20420BDE8F0874FF093
:10644000000801F8018B4FF0010981F800904F1C02
:10645000207907F8010B227938462168FCF7FEFF06
:1064600020790744207B07F8010B227B3846A1687E
:10647000FCF7F4FF207B2021384480F8008080F86E
:106480000190817000203560D7E710B50A884988EF
:106490008A4203D1FCF74EFF012010BD002010BD41
:1064A00070B50C460546FCF728FF002802D061882D
:1064B0002868084470BD08B501216A46FCF768FFEA
:1064C000009808BD38B5044600258DF80050684690
:1064D000FDF714FE21686268086890420ED9401EDC
:1064E00008600178238AE26801FB0325227A21688B
:1064F000101AC0B20A79824200D208719DF80000D9
:10650000FDF720FE284638BD38B5054600208DF839
:1065100000000C466846FDF7F1FDE868298A201A5C
:10652000B0FBF1F12A681068431C136001709DF8FC
:106530000000FDF707FE38BDC20800F00703012088
:10654000895C98400840704718B1172903D007208C
:1065500070470E20704701800020704710B560B171
:106560000161172120F8021B20F8021B1B2100F8F3
:10657000021BFFF7D9F9002010BD0E2010BD00004E
:106580002DE9F043858895B00C46002D3DD101885A
:10659000DFF824810026DFF82491012724293CD04C
:1065A00006DC102909D011290CD023296DD150E027
:1065B0003A290BD0552968D12AE00146204601F03E
:1065C00065F962E0A01DFFF7AFF95EE02246408961
:1065D00034F8061F814200D808466080172800D290
:1065E00017206080106970B1607960B1D8E900103F
:1065F000CDE90310ADF80E506088ADF810001369B6
:1066000003A9104698476671267115B0BDE8F0835E
:106610000146204601F088F937E0011D342206A822
:10662000FCF71CFFBDF81800BDF81C2004EBC001EE
:106630004A7322694AB3D8E90432CDE90432ADF88D
:106640001200487B8DF814002269204604A9904767
:106650001BE00496059630F8041F04EBC102017993
:10666000127B8A4200D21146ADF81010ADF812101C
:106670000088002204A990DF020006D0B9F80000CB
:106680000F4907EB004000F043FEA07A0028BCD081
:10669000E18828469EDF02000BD0112AB5D0B9F858
:1066A000000015B007EB0040BDE8F043054900F0DD
:1066B0002FBEA672E772A8E7B08F0200E82B002079
:1066C00058910200D090020000F18040006800283C
:1066D00000D00120704708B500F180400021016022
:1066E0000068009008BD00000549096840F480304A
:1066F00001F00111814201D1012070470020704753
:106700000C0400404FF47A71484300F001B80000D7
:1067100000283ED01F49204A096800BF00BF00BFC3
:1067200000BF00BF00BF00BF00BF91422FD000BF1D
:1067300000BF00BF00BF00BF00BF00BF00BF00BF61
:1067400000BF00BF00BF00BF00BF00BF00BF00BF51
:1067500000BF00BF00BF00BF00BF00BF00BF00BF41
:1067600000BF00BF00BF00BF00BF00BF00BF00BF31
:1067700000BF00BF00BF00BF00BF00BF00BF00BF21
:1067800000BF00BF00BF00BF00BF00BF00BF013897
:10679000C3D17047482B00200024F40000283ED0CD
:1067A0001F49204A096800BF00BF00BF00BF00BFEB
:1067B00000BF00BF00BF91422FD000BF00BF00BF8D
:1067C00000BF00BF00BF00BF00BF00BF00BF00BFD1
:1067D00000BF00BF00BF00BF00BF00BF00BF00BFC1
:1067E00000BF00BF00BF00BF00BF00BF00BF00BFB1
:1067F00000BF00BF00BF00BF00BF00BF00BF00BFA1
:1068000000BF00BF00BF00BF00BF00BF00BF00BF90
:1068100000BF00BF00BF00BF00BF0138C3D1704739
:10682000482B00200024F40000283ED01F49204AB5
:10683000096800BF00BF00BF00BF00BF00BF00BFAE
:1068400000BF91422FD000BF00BF00BF00BF00BFFC
:1068500000BF00BF00BF00BF00BF00BF00BF00BF40
:1068600000BF00BF00BF00BF00BF00BF00BF00BF30
:1068700000BF00BF00BF00BF00BF00BF00BF00BF20
:1068800000BF00BF00BF00BF00BF00BF00BF00BF10
:1068900000BF00BF00BF00BF00BF00BF00BF00BF00
:1068A00000BF00BF00BF0138C3D17047482B002094
:1068B0000024F40000283ED01F49204A096800BF88
:1068C00000BF00BF00BF00BF00BF00BF00BF9142BC
:1068D0002FD000BF00BF00BF00BF00BF00BF00BF80
:1068E00000BF00BF00BF00BF00BF00BF00BF00BFB0
:1068F00000BF00BF00BF00BF00BF00BF00BF00BFA0
:1069000000BF00BF00BF00BF00BF00BF00BF00BF8F
:1069100000BF00BF00BF00BF00BF00BF00BF00BF7F
:1069200000BF00BF00BF00BF00BF00BF00BF00BF6F
:1069300000BF0138C3D17047482B00200024F40069
:1069400008B500208DF800006846FDF7D7FB064823
:106950004168491E4160406808B9FEF71FFE9DF876
:106960000000FDF7EFFB08BD44340020F8B5194DD9
:1069700004466878002648B114B161680020884751
:106980008DF800606846FDF7B9FB1AE08DF80060ED
:106990006846FDF7B3FB24B10E4821460830FEF7E8
:1069A00009FF686868B900F0CBFE08B13FDF08E076
:1069B0004FF48070FFF78FFE01208107C1F80403B8
:1069C00008606868401C68609DF80000FDF7BAFB2D
:1069D000F8BD00004434002070B50F4C002520782D
:1069E00008B1852516E00021A16061602161E160A8
:1069F0004FF0E020D0F80001012610F0010F03D184
:106A00000721002000F022F800F09AFE08B90348A0
:106A100006602670284670BD4434002018050040EA
:106A200008B500208DF800006846FDF767FB0648B2
:106A3000C168491EC160C06808B9FEF761FF9DF8D2
:106A40000000FDF77FFB08BD443400204907090E14
:106A5000002806DA00F00F0202F1E02282F8141D8D
:106A600003E000F1E02282F8001400F01F0201218F
:106A700091404009800000F1E020C0F88012C0F889
:106A8000001170472DE9F047254D04468A462879C4
:106A900010B10820BDE8F08704B9224C4FF000097E
:106AA000A67994F8078094F808C0627AA77A217CC6
:106AB000E36886B9012A02D0022A03D00BE001293B
:106AC00028D008E031B3022924D0042922D0062995
:106AD00020D008291ED01448C0F80465C0F82485C9
:106AE000C0F820C5C0F81C25C0F82875C0F81815D6
:106AF00001268BB1C0F81435C0F810652046FEF7AA
:106B0000D5FAC5F800A061792520FFF79FFF2E7107
:106B10000020BFE70720BDE7C0F81095EEE70000B2
:106B20004C3C0020B0900200005002402DE9F0479C
:106B3000304C0746994620790E464FEA5208012804
:106B400002D00820BDE8F0871FB1384600F066F893
:106B500060B11EB1304600F061F838B1264DC5F87D
:106B60005085C5F838751FB1012002E01020E9E713
:106B70000020C5F80805C5F84065300000D00120A8
:106B8000C5F80C05C4E90276A4F8068061793046A0
:106B900041F00801424661715FEAC97306D02FB126
:106BA00020B121F0060141F0010101E021F00101D5
:106BB00061710126C5F800650221217150B161792A
:106BC000C90703D09100FCF762FC03E0014623688B
:106BD000002098474FF48271284600F096FA4FF44F
:106BE0008A71284600F091FA2220C5F804032E602D
:106BF0000020A7E74C3C002000500240054822211D
:106C0000C0F80813012141600022C0F800250248A5
:106C100001717047005002404C3C00200121B1EB53
:106C2000507F01D1012070470020704770B50C469D
:106C300014490546087C08B1112070BD2079124E18
:106C400008B1012801D10020306001EB4500027F2E
:106C50001AB911F82D2F521C0A70E1790177217AA7
:106C600041772146284600F03FFC227AE179284608
:106C700000F06EFC207908B1012801D101203060BC
:106C8000002070BD58340020007500402DE9F0410F
:106C90001D4C054694F82C0010B10820BDE8F08189
:106CA00009B115B102E00720F8E7184D44F8101BB0
:106CB000174928780860091D68780860E878A07787
:106CC000012727770020207060776060114EE07701
:106CD0006FF00040C6F808034FF4827000F04AFCE1
:106CE000B01500F047FCA9780720FFF7AFFE02209F
:106CF000C6F80403A07F10B10120C6F804030448BD
:106D0000F03807600020C9E758340020AC8F02003B
:106D1000F0750040007000402DE9F0412C4D804698
:106D20000B46287C10B11120BDE8F08101242C74A1
:106D3000284E0322C6F808232146184600F0CCFB53
:106D400095F82D00012808D900270022F8B2114635
:106D500000F0FEFB7F1C082FF7D305EB4800427FB5
:106D6000017F404600F0F4FB002734601948001D05
:106D7000046042F210744FF4827800E0641E4046D2
:106D800000F0F0FB08B9002CF8D14FF4807000F04F
:106D9000F1FB404600F0EEFB95F82D0001280BD9E1
:106DA0005FF0000405EB4400427F017FE0B200F099
:106DB000CFFB641C082CF5D395F82E0008B10320F6
:106DC00000E00220C6F8040338462F74ACE7000048
:106DD000583400200070004030B54FF4803405680E
:106DE0008C4013B1C5F8044301E0C5F808430068BE
:106DF00000EB8100C0F8402530BD00000168012291
:106E00000A600079034A00EB400002EB8000022197
:106E10000172704784330020F0B40468049E40F28D
:106E20000115D4F800728D40AF43C4F800720468B5
:106E3000D4F800521D43C4F800523346F0BCFFF7AB
:106E4000CBBF0000F8B504460D460079204900EBA1
:106E5000400001EB8006307A08B10820F8BD3AB155
:106E6000326068687060002003464FF4A07709E044
:106E70000720F8BD226807EB800153505158401C91
:106E8000C0B2009161798142F4D82068E978000BA2
:106E900040B2FFF7DBFD20686978D0F8042561F384
:106EA0000102C0F804252068A978D0F8082561F30C
:106EB0000102C0F8082520682978D0F8102561F370
:106EC0000302C0F81025012030720020F8BD000038
:106ED000843300202DE9F04128B1016819B1C96956
:106EE000BDE8F04108470D4D0D480024461B14270E
:106EF0000DE000BF04EB840005EB8000016829B1C0
:106F0000C969884710B10120BDE8F081641CB6FB57
:106F1000F7F0A042EED80020F6E7000000000000E5
:106F200000000000044801214174007A08B10020EB
:106F3000704701207047000028370020012801D049
:106F4000032808D10449002201284A7400D00020F7
:106F5000087400F07BBD70472837002070B5254CC1
:106F60000246207A012837D0022841D12248002346
:106F7000022A006802D0032A2ED11BE0E3600179C7
:106F800011B1012928D10DE0D0E90565711B4FF43D
:106F90008056B14200D33146294481614569A942F6
:106FA0000ED019E00169491C01614269914213D177
:106FB000237217E0E168491CE16008290CD9E360FD
:106FC0002372022A0ED00D21FEF73AF90B480A4926
:106FD000091D0068FFF759FA607C28B1BDE87040D0
:106FE00000F0B4BB0021EFE7BDE8704000F02EBD1B
:106FF00070BD000028370020302B00208C9002004C
:1070000070B541EA4201DDE904564FF0A04441EA7F
:10701000830141EA052104EB800041EA0641C0F802
:10702000001770BD70B541EA4201DDE904564FF02A
:10703000A04441EA830141EA052104EB800041EAD2
:107040000641C0F8001770BD70B541EA4201DDE9A4
:1070500004564FF0A04441EA830141EA052104EBC4
:10706000800041EA0641C0F8001770BD1CB500223F
:107070000B46009211460192FFF7E6FF1CBD1CB5BE
:10708000002100910B46012201911146FFF7DCFF20
:107090001CBD4FF0A04202EB8000D0F8002722F484
:1070A0004032C0F80027D0F8002742EA0141C0F87A
:1070B0000017704718B5084B6C4601441B680093D5
:1070C00006E000BF54F82030D3F81035401C08C249
:1070D0008142F7D818BD00002C8F0200034908B583
:1070E0000844002101600068009008BD0060004075
:1070F00002494058012800D000207047006000403D
:107100004058002800D00120704708B500224250A6
:107110004058009008BD00002DE9F04F8DB0FDF7FC
:1071200025FF18B100200DB0BDE8F08F7448002194
:10713000C0F81814BFF34F8FD0E9014604EA0601E6
:1071400000EB81014FF000090AE000BFC1F3891292
:1071500002EB9151641C0C4404EA060100EB81012E
:10716000C9688A07F2D0002103AA804604EA060013
:1071700008EB8000641CC06842F82100491C4346AB
:107180000229F3D3039800F00300022806D0012857
:1071900003984FD0C04380077ED0ACE003985022C4
:1071A000810D8A46B2EB905F00D850210D4665F301
:1071B0009F5003900831534800F0CEF807006CD080
:1071C00000F013F94B46082203A9384600F025F9D0
:1071D00004EA0601701A8000001D09F1080B8542BF
:1071E00021D9474E0C3630B1C2B208EB8101281AC2
:1071F00091460C3104E03146EAB200269146304611
:10720000C5B25B46384600F008F90BEB09032EB116
:107210002A4631464FEA070000F0FFF80AF1030062
:1072200004EB90043BE008EB81015B462A463846BC
:107230000C31F1E7C0F38310062800D30620039930
:1072400060F38911C1F38310801C039181002D48E4
:1072500000F082F807004ED000F0C7F84B46082235
:1072600003A9384600F0D9F809F1080900250DE016
:1072700004EA060008EB80014B46042238460C3134
:10728000641C00F0CAF809F104096D1C0398C0F3EE
:107290008310A842ECD801E00BE02CE05FB3D8F8F3
:1072A0001054D8F81804464690B1384600F0A4F8B7
:1072B00021E0D3F8180400283FF435AF1BE0687ACA
:1072C000012804D1296828460A68394690476D6824
:1072D000002DF4D1384600F08FF800208DF8000022
:1072E0006846FCF70BFFD6F8180400B974609DF8E7
:1072F0000000FCF727FFFDF739FE80F0010012E7E0
:107300002C3800209C90020000231A4600F0E2BFB7
:1073100008B5012300926A4600F0DCFF08BD1CB5E9
:10732000CDE9002302236A4600F0D4FF1CBD000013
:1073300070B508480125D0F8104480F81C5405E0C9
:10734000657221682046496888476468002CF7D137
:1073500070BD00002C3800202DE9F041058A8046E0
:107360002D1F4819C01CB0FBF5F0C6B24046FFF710
:10737000A9F8041E19D00020207101206071E58059
:1073800000272546761EC4F800800BE04046FFF734
:1073900099F860B16179491C6171286005467F1CCC
:1073A000C0F80080B742F1D32046BDE8F081204606
:1073B00000F002F80020F8E72DE9F0414579014698
:1073C0006B1E002201E00968521C9A42FBD30F6831
:1073D0000146002605E038460C68FFF795F821467F
:1073E000761CAE42F7D3BDE8F08108B501216A46AC
:1073F000001DFBF742FF08BD38B50446001D012102
:107400006A46FBF747FF009810F0FF0F04D12046B3
:10741000BDE83840FFF7D0BF38BD38B50024009430
:10742000FEF770FC38BD0000002802D101490120A0
:10743000086070470050004008B5002101600068F6
:10744000009008BDF1B59DF800000125194C0328F6
:107450000AD119480068A168084203D002208DF8BB
:10746000000001E08DF800509DF80000012809D0CF
:10747000022806D1607818B90E481030FFF776FA66
:107480006570F8BD0D4EB560FFF75AFA00206070C8
:107490004FF48860C6F80803A5606568002DF0D039
:1074A000E06801B0AC46BDE8F04000231A46012177
:1074B00060470000F82A00203C5400400050004083
:1074C0004058002800D00120704708B500224250E3
:1074D0004058009008BD0000024A1060101D016075
:1074E000704700002C76004010B50A784B783024A5
:1074F00002F0030204EA03131A438B784FF4E064AA
:1075000004EA03231A43CB784FF4805404EA03338C
:107510001A430B794FF4E02404EA03431A434B79EE
:107520004FF4801404EA03531A438B79240104EACC
:1075300003631A43030105481844C0F81825CA79A3
:10754000097AC0F81415C0F8102510BD007000406D
:10755000030103481844C0F81425C0F810157047FB
:107560000070004002494058002800D001207047B8
:1075700000700040034908B508440022026000681A
:10758000009008BD0070004020B103490968016007
:10759000002070470E20704760900200FEB5024642
:1075A0000D460846FFF7F0FF002838D1002400946C
:1075B0000194012603208DF80020ADF80400029408
:1075C0008DF80260694620202A6869DF00948DF8F2
:1075D00000608DF80140019402948DF802406946E4
:1075E00040202A6869DF0094019402948DF80060BD
:1075F000694601202A6869DF4FF4B0600090019469
:1076000002946946A1202A6869DF009401940294DB
:107610008DF800406946A0202A6869DF0020FEBD81
:1076200060DF704730B593B05FF03805ADF8445077
:1076300011A903A861DF30B1052816D013B0BDE849
:107640003040FCF7BFBC03AC0949684600F0AAF81B
:1076500007E000BFD0E9002120469047684600F0CF
:10766000B8F802980028E1D0F4E713B030BD00006C
:107670006490020010B50D4C2078A0B10120A070DC
:1076800000F020FB11280CD0022000F033FB11DFAA
:10769000002807D12070A07000F0D8FD032000F072
:1076A00029FB002010BD082010BD0000182B002071
:1076B00038B5174C207808B1082038BD0125A570D1
:1076C000002000F0FFFA112820D0002000F012FB6B
:1076D0001048114900680090684610DF0028ECD17E
:1076E0002570A07060700721162000F0A0FA08B184
:1076F000FCF768FC0721152000F099FA08B1FCF7A7
:1077000061FC00F0BFFD012000F0F4FA002038BD5C
:10771000182B0020F88F02004D3F02000EB50749DC
:10772000684600F03FF805E0D0E900108847684659
:1077300000F04FF802980028F6D10EBD1490020018
:107740000148007870470000182B00200548817818
:1077500019B1007818B1FFF78DBF08207047FFF707
:10776000A7BF0000182B00201FB5684648DF30B1C6
:10777000052814D004B0BDE81040FCF723BC08492C
:1077800001A800F00FF806E0D0E90021009890472A
:1077900001A800F01EF803980028E6D0F4E71FBD0A
:1077A00080900200016009684160AFF3008010B56D
:1077B000D0E900215368994201D1002104E0D1E9C8
:1077C0000034A34202D01946816010BD08314160E7
:1077D000F0E7816800290BD0026892680A44826051
:1077E00041684B689A4203D108314160FFF7DFBF1F
:1077F00070474058002800D00120704708B500228B
:1078000042504058009008BD4058002800D0012048
:10781000704708B5002242504058009008BDD0F88B
:107820000403084000D0012070474058002800D0D1
:107830000120704708B5002242504058009008BD12
:107840000178002906D104498A68002A02D0017B08
:1078500080681047704700008C2A0020002804D15F
:107860000248C068002800D0004770478C2A0020DA
:107870000078002807D104483B21808876DF002863
:1078800001D0FCF79FBB70478C2A00202DE9FC41FA
:107890008E88027900EBC605AC1D2A73C97B0129CD
:1078A00002D0022904D101E0008800E04088208055
:1078B000218860880127DFF8648081420CD9304636
:1078C0009EDF020025D0112A25D0B8F80000144907
:1078D00007EB0040FFF71CFDA079E179884216D93B
:1078E000002000900190287BADF80000287BADF8C7
:1078F000020000226946304690DF030007D0B8F846
:107900000000324607EB00400649FFF708FDBDE8DE
:10791000FC816771E0E72771DEE70000E82B0020BB
:10792000D0900200A09102007CB506468D88C888E0
:1079300006EBC504A41D172800D217202188814218
:1079400000D8084660800020207121882846ADDFDD
:10795000020007D00E480121008801EB00400D49CC
:10796000FFF7D6FC6079002810D1306900280DD0CF
:107970000948D0E90210CDE90010ADF80250608846
:10798000ADF8040032696946304690477CBD00007E
:10799000E82B002014910200B08F020070B50C4655
:1079A0003C2900D93C240B2839D2DFE800F0380606
:1079B0000B10151A241F292E33002146224800F0EF
:1079C00063FA3BE02146204800F084FA36E0214685
:1079D0001D4800F059FB31E021461B4800F0BAFA7F
:1079E0002CE02146184800F009FB27E02146164804
:1079F00000F024FB22E02146134800F079FB1DE053
:107A00002146114800F080FA18E021460E4800F0A7
:107A1000C9FB13E021460C4800F0C4FA0EE0002038
:107A20000146094A08E000BF00EB4005AB18401CC6
:107A300059705155997080B2A042F5D32146BDE8E6
:107A400070400148FDF732BFD03200202DE9F041EF
:107A5000214C0025214E207A012730B92048311DC4
:107A60000068FEF71DFD306038B1022020723168D9
:107A7000087928B101281ED116E06560BDE8F081C3
:107A8000D1E90503C01A4FF48052904200D310464A
:107A9000B7EB900F01D2820800E001220869C968A3
:107AA0001844194429DF03E0D1E90301084428DF21
:107AB00038B111280ED003213068FDF7C1FB2572C3
:107AC000DBE7207C0028D9D1BDE8F041002102206D
:107AD000FFF744BA2772D1E728370020302B002067
:107AE0008C90020010B500214FEA010201EB410425
:107AF0002318491C5A70025589B29A703C29F5D353
:107B000010BD000070B5012670044FF0E021002583
:107B1000C1F88001084C4010C4F84803C4F80803B9
:107B200066602F20FEF7C6FEA660044C2F20A560DD
:107B3000FEF7C0FEA57070BD001001401C2B002098
:107B400070B50546C87D0C4600284FF48471284660
:107B50000AD0FFF75EFED5F81805627EE16888540A
:107B6000607E401C607670BDFFF753FED5F81805A7
:107B700070BD30B58FB005461C216846FBF787FC09
:107B800000249DF80000019440F00C008DF80000E6
:107B9000039404940594069428788DF83600022006
:107BA000ADF834000C949DF83000142120F00F0043
:107BB000401C20F0F00010308DF830009DF83100AE
:107BC00020F00F00401C20F0F00010308DF8310044
:107BD0009DF8320020F00600801C20F0180040F0D4
:107BE00001008DF8320007A8FBF751FC0DA80790A3
:107BF0000CA808900120ADF824001420ADF8264010
:107C0000ADF82800688805F10C0307AA6946A2DFD1
:107C10000FB030BD1FB501238DF800308DF808106E
:107C20000192D0E90012684690471FBD704770B5B9
:107C30000D460446FCF76CF970B12846FCF77AF95A
:107C400068B16807000E002C0CDA04F00F0101F196
:107C5000E02181F8140D09E042F2010070BD42F20A
:107C6000020070BD04F1E02484F80004002070BD1F
:107C700038B50021012558B101280ED003280BD1B9
:107C800007210020FEF7E2FEBDE83840FEF7C8BE3F
:107C90004FF0E020C0F8805138BD8DF800106846E4
:107CA000FCF72CFA064C207808B9FEF795FEE06840
:107CB000401CE060A5709DF80000FCF743FA38BD59
:107CC000443400203EB5044609496846FFF76AFD82
:107CD00008E000BFD0E900212046904730B1684657
:107CE000FFF777FD02980028F4D13EBD11203EBD7C
:107CF000FC8F02003EB5044608496846FFF752FD76
:107D000007E000BFD0E90021204690476846FFF712
:107D100060FD02980028F5D13EBD000008900200E9
:107D200070B50028049D18D0002916D0002A14D060
:107D30005FF0000430F814609E420FD10020012350
:107D4000A34008E001EB800426680DB11E4300E06B
:107D50009E43401C26609042F4D370BD641C202CCE
:107D6000E8D370BD70B5054600242146284600F0D2
:107D70000AF808B1204670BD641CA4B2202CF4D3CC
:107D80004FF6FF7070BD01228A40024201D00120EF
:107D90007047002070472DE9F04192B080464FF0C7
:107DA000000017460D00009012D000246E46A1B2CC
:107DB0003846FFF7E8FF40B1009935F8140006EBAC
:107DC000410188800098401C0090641C202CEED358
:107DD000442269464046FBF741FB12B0BDE8F08102
:107DE00008B5009313460122FFF79AFF08BD000073
:107DF00002498969002900D008477047BC34002037
:107E00002DE9F0410746806A14468846C8B300252C
:107E100031E000BFB96A05EB450001EB8006B08890
:107E2000801CFE2802D90C20BDE8F0812288401C6D
:107E300008F8020020881622401C80B2208008F832
:107E400000202088401C80B2208000EB0801308890
:107E500000F048FF2188084480B22080B28842B1F7
:107E6000B16871B14044FBF7F9FA2088B188084441
:107E700020806D1CEDB297F82C00A842CAD80020D3
:107E8000D2E7FFE70720CFE770B514686423642CBE
:107E900000D9136012684A43B2FBF3F294B2002295
:107EA0000B4B12E0A1EB020505EB4505A242054490
:107EB00004D2DE8825F8036D1E7A03E01E8825F8BB
:107EC000036D9E78521CAE70D2B28A42EAD370BD66
:107ED000218F020038B51268130C8DF80130130A97
:107EE000D4B28DF800308DF802400022BDF8003089
:107EF00007E000BF02EB42050544521C2B80AC702A
:107F000092B28A42F6D338BD70B504460D46106869
:107F10004FF4B461B0FBF1F301FB13001060C0F348
:107F20008F000B4B14225021FBF7A6FB0022084BBD
:107F30000AE002EB420001191E784E709E7826542A
:107F40001879521C887092B2AA42F2D370BD000018
:107F5000E82A0020F0B50023114E282718E0146805
:107F60008C2C07D203EB4304044435882580B57874
:107F7000A5700BE003EB43042518C3F1140C85F83E
:107F800001C003F1140C00F804C0AF705B1C9BB27D
:107F90008B42E4D310688C2801D900201060F0BD1A
:107FA000218F020070B504460D4610688C21B0FB8D
:107FB000F1F301FB1300106068B9FBF73DFA4FF4D1
:107FC000B47190FBF1F201FB120080B20A4B28223F
:107FD0005021FBF751FB0022074B0AE002EB420065
:107FE00001191E784E709E7826541879521C88709C
:107FF00092B2AA42F2D370BDDC2A0020F0B5002371
:108000000D4F282410E015688C2D03EB430505D295
:1080100005443E882E80BE78AE7003E02E18747042
:108020004455B4705B1C9BB28B42ECD310688C2817
:1080300001D900201060F0BD218F020030B5104B37
:10804000104C59682588890801EB410101440D80D5
:10805000A4788C701168F024B1FBF4F504FB1511C1
:1080600011605960890801EB41010144FF238B70C5
:108070001168890801EB41010844437030BD0000DC
:10808000D42A0020218F0200FCB506460F46106856
:1080900015464FF4B461B0FBF1F201FB120000246D
:1080A000286022E04FF4B47161433222B1FBF2F157
:1080B00028686B4601EB900080B24FF4B471B0FBBE
:1080C000F1F201FB120028225021FBF7D5FA04EB54
:1080D00044008119BDF800204A70BDF802203254D6
:1080E000BDF80400641C8870A4B2BC42DAD3FCBDA5
:1080F00070B505460E46880011681438144688424B
:108100000FD800202060FBF797F94FF4B47190FB73
:10811000F1F201FB120080B2214B28225021FBF723
:10812000ABFA2846FFF7DEFC1D48002322680178E1
:10813000A6EB92021A4402EB42022A4402F80E1CF9
:1081400022688178A6EB92021A4402EB42022A448A
:1081500002F80F1C22680179A6EB92021A4402EB86
:1081600042022A4402F80D1C2268017803EB9202B5
:1081700002EB42022A4451702268817803EB92029A
:1081800002EB4202A9542268017903EB920202EB4E
:1081900042022A445B1C9BB29170052BC6D370BD72
:1081A000E22A002070B50D460446FFF79BFCFBF762
:1081B00043F990FBF5F105FB110080B2044900EB97
:1081C00040002044B1F8032002804979817070BDDD
:1081D000218F020010B50C4CE178002912D16061AA
:1081E00004F11E00017821F007010170A0214180F7
:1081F000502181800021C1808ADF08B1FBF7E2FEB7
:108200000120E07010BD00008C2A002030B4074C23
:10821000E078002807D08BDF0021E170002802D031
:1082200030BCFBF7CFBE30BC704700008C2A00206A
:108230000249C8700620488170470000682A002063
:10824000002801D1FCF7C8BE7047000010B5162009
:10825000FBF75EFE48B10A4882684FF4800152B1D4
:10826000016821F48001016010BDBDE8104042F2B8
:108270000100FBF7A7BE4FF0E020C0F8801110BD51
:10828000F433002010B51620FBF742FE80B10F48F2
:1082900090F800044009FBF74DFE60B10C4882687D
:1082A0004FF480016AB1016841F48001016010BDA2
:1082B00042F2010001E042F20200BDE81040FBF78B
:1082C00081BE4FF0E020C0F8001110BD16E000E0C4
:1082D000F43300202DE9F843214C884605469146A9
:1082E0001F4669461846A668FCF70EFE70B3009854
:1082F000811C00220AE000BF01EA060C59F8223076
:1083000004EB8C0C491C521CCCF80C30BA42F3D351
:108310000246401C304004EB80002B0CC36002EA94
:10832000060004EB8002E80652F80C0F02D540F07C
:10833000040001E020F0040065F3C50067F3891034
:1083400068F39F2020F00300401C106094F81C0488
:1083500002E000BFFEF7E0FE0028FBD1BDE8F88395
:108360002C380020054840F2FE41808848434FF4F5
:108370007A71B0FBF1F080B270470000C02A002093
:1083800070B5124CA4F10C05287804EB40010020D4
:10839000FEF7C2FC2878401C00F0030028706878C3
:1083A00028B120886080A080E0800020687020884C
:1083B0006188E2880844A1881144084480B200F032
:1083C00049F8A880BDE8704000F070BBCC2A0020BE
:1083D0004FF0A040D0F81005C00F01D0002070472A
:1083E0000120704730B5002485B003252B46224676
:1083F00021461F20CDE90045FEF714FE012200941E
:108400000023114628460194FEF70CFE4FF0A041D0
:108410000820C1F80C050D4A02AB07CA83E8070023
:108420008DF80A408DF80B4009490020FEF72EFC1C
:1084300008B1FBF7C7FD02A90020FEF7F7FB0028F3
:1084400001D0FBF7BFFD05B030BD0000188F020062
:108450002D7C020007498A781AB982018A600122BC
:108460008A708A68A2EB921210448860C0F38F1061
:1084700070470000C02A00200EB51149114AD1E909
:108480000301CDE901010E4801A9001DFEF7DAFC48
:1084900008B1FBF797FD0A48001D0068D0F81005E9
:1084A000094A0021C2400120034600900448001DF3
:1084B000FEF7B2FC0248001DFEF7A0FC0EBD000056
:1084C000D48E0200CD84020000E20400B0F5A07F4B
:1084D00001D100F02BBC70472DE9F84F1D4C002551
:1084E0006846D4E901A6FCF78BFE002738B30023C9
:1084F000009A61681CE0D1F800C00846944503D991
:10850000ACEB02020A6015E0A2EB0C0263440760C8
:10851000D0F80CC0C1698146BCF1000F08D006EB51
:10852000030828F07F48C0E9018CC9F81C500546B3
:108530000029E0D128466160FDF700FA03E02846F3
:10854000FDF7FCF910B15046FCF75AFDE770BDE8A5
:10855000F88F00001C2B00200D4B10B5596831B16D
:1085600002680C68A24204D8A21A0A60C16158606D
:1085700010BD0B4603E00B46C969121B21B10C6804
:108580009442F8D3A41A0C600260C161D86110BD96
:108590001C2B00202DE9F041144E77683D462C46F7
:1085A00003E0844204D02546E469002CF9D11BE0A5
:1085B000D4B1A5420BD1F869706040B90C490120D3
:1085C00088600021B160F0702F20FEF773F92168F8
:1085D000E069E86110B10268114401607068874287
:1085E00002D00120BDE8F0810020FBE71C2B002019
:1085F000001001407CB5064600240D468DF8004071
:108600006846FBF77BFD01A800F0E4FB70B1057044
:10861000094946609DF8040048709DF80000FBF78A
:1086200091FD1420FBF7E4F920467CBD04249DF85D
:108630000000FBF787FDF7E7D83400202DE9F04173
:10864000194D6C68002C2CD0184800270068A968C8
:10865000B846401A20F07F462068B0420CD8214628
:10866000361A0744E469087C20B181F810808869D3
:1086700049698847002CEFD129786878814206D172
:10868000401CC0B26870022801D185F801800648FC
:1086900069780C3040F82170BDE8F0411420FBF7F8
:1086A000A7B9BDE8F08100001C2B00200415014093
:1086B00001460320CA0701D04FF402408A0701D5C2
:1086C00048F20120490701D548F2022070472DE900
:1086D000FE4F05460C4642F2107002901F4693462C
:1086E00000264FF482712046FFF788F84FF492710C
:1086F0002046FFF783F84FF48E712046FFF77EF88F
:108700004FF484712046FFF779F8002085F82600A1
:1087100085F82300012F0ED00121C4F80012012199
:1087200021622160296861B140F28620A860A868B2
:10873000C4F804032BE00221EFE70298401E0290E8
:1087400005E08046029805F1260A05F12309002874
:1087500009DDCDE900785B4652464946204600F0E7
:108760002DF80028E9D195F8230038B1D4F8C404D5
:10877000C4F8C40410B1FFF79BFF06460298002816
:1087800005DCC4F800850520C4F800050326304642
:10879000BDE8FE8F30B51C78039D944206D2095D7A
:1087A000C0F81C151878401C187005E0012115B19F
:1087B000C161002030BD4161012030BD2DE9FF4F76
:1087C00081B0044608780E9E90460F4618B998F876
:1087D0000010B14201D1012100E0002189464FF48F
:1087E0008E7B4FF4927160B12046FFF707F859462F
:1087F0002046FFF703F84FF484712046FEF7FEFF92
:108800004DE08A462046FEF7F4FF012540BB59465D
:108810002046FEF7EEFF98B159462046FEF7EEFFE0
:1088200051462046FEF7E5FFD0B90F980090434629
:10883000324620460499FFF7ADFF00283ED02EE0D7
:108840004FF4847B59462046FEF7D3FF38B3594690
:108850002046FEF7D3FF51462046FEF7CAFF30B14F
:1088600051462046FEF7CAFF65613D7017E098F853
:10887000002004994046B24211D2D4F818358B54E6
:108880000178701E491CC9B288F80010814203D1DA
:108890000220C4F8000201E0B14200D02562B9F123
:1088A000000F0ED04FF4827529462046FEF7A1FF37
:1088B00038B129462046FEF7A1FF002005B0BDE8EB
:1088C000F08F0120FAE72DE9F04F87B005460C46FE
:1088D00042F2107004909A4693460026109F4FF47F
:1088E00082712046FEF78AFF4FF492712046FEF710
:1088F00085FF4FF48E712046FEF780FF4FF48471A0
:108900002046FEF77BFF0020C4F8000285F8260011
:10891000804685F8230001202062A06005F126032F
:1089200052465946204600970293FFF733FF2868C6
:1089300050B140F28620A860A868C4F8040326E07D
:108940000498401E049002E0049805F123090028D1
:1089500009DDCDE900A75B4649462046029AFFF7AC
:108960002DFF0028ECD195F8230038B1D4F8C404C9
:10897000C4F8C40410B1FFF79BFE06460498002813
:1089800005DCC4F800850520C4F80005032607B0FF
:108990003046BDE8F08F70B50C4605464FF48E7139
:1089A000FEF737FFA18AA068415CA08A401CA08224
:1089B000C5F81C1570BD30B58FB00024054607946E
:1089C0009DF81C001C2120F00F00401C20F0F0003E
:1089D00010308DF81C009DF81D0020F00F00401C89
:1089E00020F0F00010308DF81D009DF81E0020F0E2
:1089F0000600801C8DF81E006846FAF748FD9DF8B9
:108A00000000019440F010008DF8000007A8CDE9A7
:108A100004400394069428788DF83A000320ADF8BA
:108A200038000D949DF83400142120F00F00401CF4
:108A300020F0F00010308DF834009DF8350020F063
:108A40000F00401C20F0F00010308DF835009DF82C
:108A5000360020F00600801C20F0180040F00100D5
:108A60008DF8360008A8FAF712FD0EA808900DA898
:108A700009900120ADF828001420ADF82A40ADF887
:108A80002C0068882B1D08AA6946A2DF0FB030BDF4
:108A90001FB500228DF800208DF808108168019123
:108AA0008275D0E90012684690471FBD00B5FFF7F8
:108AB00059FCB0F57A6F01D3642000BD40F68C21DB
:108AC000884206D90D21A0F68C2090FBF1F0C0B2AF
:108AD00000BD002000BD2DE9FF470C4605464FF4C0
